:020000040000FA
:10000000287A0010210200002502000027020000CB
:10001000290200002B0200002D0200000000000059
:100020000000000000000000000000002F0200009F
:100030003102000000000000F91A0000251B00003A
:1000400037020000C91D0000D91D0000E91D000095
:10005000F91D0000091E0000211E000037020000EB
:10006000391E0000E91A00003702000037020000C4
:10007000370200003702000037020000370200009C
:10008000370200003702000037020000370200008C
:100090003702000037020000C51A000037020000D6
:1000A000511E000037020000370200003702000036
:1000B000370200003702000037020000370200005C
:1000C00037020000370200003702000000F002F89B
:1000D00000F096F80AA090E8000C82448344AAF14C
:1000E0000107DA4501D100F08BF8AFF2090EBAE84A
:1000F0000F0013F0010F18BFFB1A43F0010318475C
:10010000F056000010570000103A24BF78C878C19C
:10011000FAD8520724BF30C830C144BF04680C600D
:10012000704700000023002400250026103A28BF55
:1001300078C1FBD8520728BF30C148BF0B60704759
:100140006E2900F04783702900F09084662904F03E
:10015000AC86652904F0A986672904F0A686612982
:10016000AFF3008003681B0A28BF41F080016929B2
:1001700000F01681642900F01381752900F01081C8
:100180006F2900F01B84782900F05C84E92900F0D5
:10019000B383E42900F0B083F52900F0AD83EF29A3
:1001A00000F01884F82900F05B840368DB0928BF9D
:1001B00041F08001632900F0F086732900F0F58694
:1001C000E32900F00087F32900F00587002070473D
:1001D0001FB59DE8030000F025FA00F071FF040050
:1001E0000020002103F018FD401C60600020002169
:1001F00003F0FCFCE06000F0E1F91FBD10B510BD9C
:1002000000F031FF1146FFF7E3FF03F0B9FB01F007
:100210000DF803B4FFF7F2FF03BC00F0E1F90000B2
:1002200008480047FEE7FEE7FEE7FEE7FEE7FEE7D9
:10023000FEE7FEE7FEE7FEE703480449044A054BF4
:1002400070470000CD000000280A0010287A001036
:10025000286A0010286A001080F30888EFF30880ED
:10026000B0E8F00F80F308887047EFF3088020E9CA
:10027000F00F80F30888704770B5064600F0B6F9B5
:10028000056806F10B0020F00704B4429CBF002073
:1002900070BD2B466A68BAB11068A04210D304F151
:1002A000080188423CBF5068586007D35168101954
:1002B00041601168091B016058601460101D70BD19
:1002C00013465268002AE7D12146284600F096F9E5
:1002D0000028DED170BD00001CB50C46064B7B44E7
:1002E00069460090204600F090FA044600206946D6
:1002F00000F09EFA20461CBD4F050000FFFFFFFFE7
:1003000070B50446051F00F071F90068002C14BF99
:10031000446870BD002C18BFAC423CBF20466468E6
:10032000F8D301680A18AA4218BF456003D12A68A9
:1003300005461144016028684119A1421CBF6C6048
:1003400070BD6168696021680844286070BD70B53F
:10035000044685690068C10601D5302600E02026E4
:10036000C00708D070BDD4E9012130469047206A0B
:1003700000F1010020626D1EF5D570BD70B5044618
:1003800085690078C00708D170BDD4E9012120201B
:100390009047206A00F1010020626D1EF5D570BD06
:1003A0002DE9F0410646002410687529314616A54E
:1003B00011D000F078F9002803DAC0F1000013A58D
:1003C00007E031688A0701D511A502E0490704D585
:1003D00010A5012401E000F06FF900210A2306F1C5
:1003E000240707E0B0FBF3F203FB1200303078542F
:1003F0001046491C0028F5D123462A463046BDE860
:10040000F04100F08BB90000000000002D0000005A
:100410002B000000200000002DE9F05F8946044613
:100420004FF0000ADFF878B1FB44C0F820A0204666
:10043000E1688847002875D0252806D0D4E9012135
:100440009047206A401C2062F1E700265F46204664
:10045000E16888472028054608DB312D06D207EBE6
:10046000050010F8200C08B10643F0E7B00701D5ED
:1004700026F00406C4F81CA00027C4F818A02A2DF2
:1004800009D0284603F0BCF938B304EB8708303DA7
:10049000C8F8185019E059F8041B204604EB8702ED
:1004A0009161E1688847012F054618D1E06900286D
:1004B00020DA26F020061DE0D8F8180000EB8000B6
:1004C00005EB40003038C8F818002046E16888473E
:1004D000054603F095F90028EED1012F0AD02E2D04
:1004E00008D12046E16888477F1C0546022F46F068
:1004F0002006C4DBA069002803DA404246F001066A
:10050000A061F00701D026F010066C2D0BD0682DED
:1005100009D04C2D39D06A2D35D0742D35D07A2D97
:1005200033D016E038E0E1682F4620468847B842CD
:10053000054609D16C2F26D04FF48060E168064350
:1005400020468847054604E06C2F1AD04FF480708F
:1005500006430DB3A5F14100192802D8203546F411
:1005600000664A462946204626604E46FFF7E8FDCB
:1005700080B101280BD0F61D26F0070000F1080914
:1005800055E74020E4E78020D8E70020D6E706F1D1
:1005900004094CE7284651E7206ABDE8F09F0000B7
:1005A000E74F0000002000F06DFAFFF727FE012062
:1005B00000F016F8704770477047000070B5064CA1
:1005C0007C44064D7D4403E0206820448047241D80
:1005D000AC42F9D170BD0000785300007C5300009C
:1005E00001491820ABBEFEE7260002000048704714
:1005F000D0090010704770477047704738B50446FF
:100600000A4600206946AFF30080002808BF38BDC5
:1006100002460099204600F047FA012038BD01202B
:1006200000F01ABDF8B5AFF30080054600200C4677
:10063000102000BF0646A819A0420DD932466946CF
:100640000020AFF30080070008BF00F005FD009810
:10065000A04218BF0546C419FFF7C8FF056007464A
:10066000F01D20F007004619284600F00AF8B442B1
:1006700008BFF8BDA21B31463868BDE8F84000F05D
:1006800013BA00210160C0E90110704710207047C3
:1006900010B500F005FA006810BD10B5044600F072
:1006A000FFF9046010BD09684A0501D540B27047E2
:1006B000C905FCD500B2704709684A0501D5C0B22A
:1006C0007047C905FCD580B2704770B50C46054629
:1006D000012A05D02878800600D5EA69002302E0C7
:1006E000012305E05B1C934202D2E05C0028F9D1B3
:1006F000A869E618C01AA861286A18442862284622
:10070000FFF725FE04E0D5E9012114F8010B90471D
:10071000B442F8D32846FFF731FE70BD2DE9F0470B
:100720000D4699469246044600F124080168880661
:1007300004D5E06921F01001216000E00120A84209
:1007400002DDA0EB050700E00027A16907EB050229
:1007500002EB0900A1EB0000A0612078C00602D4E2
:100760002046FFF7F4FD002608E0D4E901211AF83D
:1007700006009047206A401C761C20624E45F4DB40
:100780002078C0060AD52046FFF7E1FD06E0D4E94F
:10079000012130209047206A401C2062381EA7F1BA
:1007A0000107F4DC07E0D4E9012118F805009047BF
:1007B000206A401C2062281EA5F10105F3DC2046BA
:1007C000FFF7DCFD2078000602D50220BDE8F087A7
:1007D0000120FBE711680268006A530501D5087023
:1007E0000BE0D30501D5088007E0130603D5C21737
:1007F000C1E9000201E052060860012070470000D4
:1008000001694A1C02610878704700B58FB0CDE9D4
:1008100001310021059105497944CDE903101146C4
:100820006846FFF7F9FD0FB000BD0000E5FFFFFFD0
:100830000A6802F8010B0A60704700002DE9FF5FAB
:1008400015468A460446DFF8AC80F8440027D8E90C
:1008500000103E46CDE9001011E03AF816106A4645
:1008600002A800F0BCFB411C07D02178890603D503
:10087000E269391891420ED8074406F10106207842
:10088000800602D5E069B84205DDAE42E5DB3AF804
:1008900016000028E1D1A069C01BA0612046FFF727
:1008A00056FDD8E90010CDE90010002016E03AF816
:1008B00018106A4602A800F092FB8146401C0BD03B
:1008C00000250DF1080B05E0D4E901211BF8050016
:1008D00090476D1C4D45F7D308F10100B0428046AA
:1008E000E5DB206A384420622046FFF747FDBDE87B
:1008F000FF9F0000064C00002DE9F0418046D21D0C
:1009000022F007020025D2E90002F52914A612D030
:10091000002A06DA0023D0EB030063EB020211A6E3
:1009200008E0D8F800108B0701D50FA602E04907B0
:1009300001D50EA601251146002408F1240704E084
:1009400000F0CCF830323A55641C50EA0102F7D17D
:100950002B46324621464046BDE8F041FFF7DEBE59
:10096000000000002D0000002B000000200000000F
:1009700030B4002100F124040CE002F0070505F179
:1009800030054FEAD20242EA4372655401F1010197
:100990004FEAD30352EA0305EFD10468002310A203
:1009A000250708D504F020040C4304D0C4690123B2
:1009B0000CA2641EC46130BCFFF7B0BE10B5044683
:1009C00021461068FFF778FE02462046BDE8104039
:1009D0000023CDE7D21D22F00701D1E90023C7E7AC
:1009E0000000000030000000F0B40D460188090549
:1009F00002D5234C7C4402E0214C7C440E3400217F
:100A000000F124060BE002F00F074FEA1212E75D37
:100A100042EA03724FEA1313775401F1010152EADB
:100A20000307F0D102780023120704D5702D06D0F9
:100A300009B1113402232246F0BCFFF76FBE103417
:100A40000123F8E770B504460D4621461068FFF70C
:100A500033FE024629462046BDE870400023C3E726
:100A6000D21D22F00703D3E90023BDE70368126813
:100A700043F0200303600823C3610023B4E70000B0
:100A8000644A000010B500F0CFFABDE8104000F055
:100A9000C6BA000000487047C8090010704700003F
:100AA00000487047C8090010034640688C4600287B
:100AB00018BF88423CBF03464068F8D31868184402
:100AC000884207D00CF1030020F00700001D411AF6
:100AD000521A0146081D0A60FFF712BC30B5B0F18A
:100AE0000A024FEA900E71F100034EEA817EB0EBEC
:100AF0000E0061EB91014FEA101E4EEA017E10EBF1
:100B00000E0041EB11114FEA102E4EEA016E10EB70
:100B10000E0041EB11214FEA104E4EEA014E10EB50
:100B20000E0041EB1141401841F100014FEAD000A5
:100B300040EA41704FEAD10110EB80054FEA810491
:100B400044EA907444EB01046D1944EB0404521B15
:100B5000A3414FF0000348BF0A3200D530BD401C0E
:100B600041F1000130BD70472DE9FF4F0C461E4694
:100B70004FF0FF378BB0D2E90001DDF860800A90BA
:100B80008A46C1F30A5505B93D46002108464FF093
:100B90000000BAF1000F00F4400005DA00EB80001D
:100BA0004FF4400101EA50004FEA9059B9F1010FAA
:100BB00000DDB9460A9850EA4A000ED044F61050BB
:100BC000A5F2FF3545432F14B8F1000F1ED0754232
:100BD000291E1EDDC9F100021CE0B8F1010F4FF023
:100BE000000001D0302103E0F24305E02154401C15
:100BF000B042FBDB30460022002121540B99C1F8A2
:100C00000880C1E900200FB0BDE8F08FBD1B6D1C4E
:100C1000DEE74A4600DA694206A800F095FA06AB1C
:100C200007CB03AB07C350460A9900F08FFB8DE852
:100C30000700A0F500501F3800900398002D09DD33
:100C400042F21F014A46084403A90390684600F097
:100C5000EEFD08E0A0F500504A461F3803A90390B6
:100C6000684600F0F8FD8DE807000004000C03D092
:100C70004FF0FF30410800E01046B8F1000F03D0FC
:100C80000022009215461FE0751E06D4FFF726FFCE
:100C900002F1300262556D1EF8D5B34601220843B9
:100CA00002D000227F1C04E02078302801D10022ED
:100CB0007F1E002A099787D01DE0112D07DAFFF764
:100CC0000DFF303262556D1C50EA0102F5D1084328
:100CD0000FD10021681E05E0235C625C6354491C4F
:100CE0002254401E8142F7DBAB46A81B401E0990F0
:100CF00001E0009848B1002004F80B000B98099A15
:100D0000C0F80880C0E9002B7DE711264FF00008ED
:100D10005AE72DE9F04F88460446D21D22F007011C
:100D200091B0D1E90001CDE90A0102F08FFC024641
:100D30000B98C00F01D02D2007E02068810701D556
:100D40002B2002E0202101EAC000032A099001D0F3
:100D5000072A05DB03464146204600F0B5F90FE1BE
:100D60002078800601D5E06900E00620B8F1650F23
:100D7000814606D0B8F1660F18D0B8F1670F72D16E
:100D800032E00020B9F1110F009001DB112301E0E6
:100D900009F101030AAA01A90CA8FFF7E5FEDDE9A4
:100DA0000C70002609F10105834648E001204B46FE
:100DB00000904FF000470AAA01A90CA8FFF7D4FE43
:100DC000DDE90DB00C995D46002618B909F1010066
:100DD00001EB0005B9EB050003D4C0F1FF3609F1C2
:100DE0000105A5EB09002BE0B9F1010F01DA4FF085
:100DF00001090020B9F1110F0090484601DD1123CF
:100E000000E003460AAA01A90CA8FFF7ADFEDDE940
:100E10000C704D4600268346207800070AD4AB4567
:100E200000DA5D4601A8012D04DD411911F8011C0D
:100E3000302907D04F4502DA17F1040F04DA0120F8
:100E4000824610E06D1EEEE7002F02DCED1B3E44F3
:100E500003E0781CA84200DD0546A7EB060000F180
:100E6000010A4FF000472078000703D4AA4501DBB0
:100E70004FF0FF3A0021B7F1004F0DF143088DF814
:100E8000431023D002202B23002F01DA7F422D2391
:100E90004FF00A0C011EA0F1010000DC4FB197FBDE
:100EA000FCF10CFB11720F4602F1300208F8012D23
:100EB000F0E7A8F1010003702188090501D545215B
:100EC00000E06521A0F1010800F8011C09980FA9B4
:100ED000A1EB080707F1070700B1012000EB0501AE
:100EE00001EBEA70A1693844A1EB0000A0F1010018
:100EF000A0612078C00602D42046FFF728FA09989E
:100F000030B1D4E901219047206A00F1010020624C
:100F10002078C00620D52046FFF719FA1CE0002EE5
:100F200004DBB34502DD01A8805D00E03020D4E998
:100F300001219047206A761C401CBAF1010A206208
:100F40000AD100F0BDF8C0680168405CD4E9012115
:100F50009047206A401C2062281EA5F10105DEDCB6
:100F600007E0D4E9012118F8010B9047206A401CE2
:100F70002062381EA7F10107F3DC2046FFF7FEF9D7
:100F8000022011B040E610B5436913B1AFF3008001
:100F900001E0FFF79AFB012010BD127800F1240157
:100FA0000A7000224A700122EDE711684FF0FF320B
:100FB000E9E710B5436913B1AFF3008001E0FFF733
:100FC0003DFC012010BD128800F124018284002222
:100FD000C2840122EDE711684FF0FF32E9E770B5F6
:100FE00016460C46054600F063F8036893F80101C5
:100FF000012806D0FF2C0FD8185D68B101202C7095
:1010000070BDD3F807013246214603442846BDE8A7
:10101000704003F2071318474FF0FF3070BD0028EF
:1010200001D0FFF7DDBA704710B5002102A000F033
:1010300003F9012010BD0000534947414252543A80
:101040002041626E6F726D616C207465726D696EA5
:101050006174696F6E00000010B500F007F9BDE81B
:101060001040FFF7DCBF7546FFF714FDAE460500E4
:101070006946534620F00700854618B020B5FFF7B3
:10108000DBF8BDE820404FF000064FF000074FF0BE
:1010900000084FF0000B21F00701AC46ACE8C00996
:1010A000ACE8C009ACE8C009ACE8C0098D4670479F
:1010B00010B500F005F8001D10BD00BF5D2B00004D
:1010C00000487047E80900102DE9F0411F4604462A
:1010D00003260168072A01F4006004DB08B116A5A5
:1010E00005E016A503E008B115A500E015A521F05F
:1010F00010002060A069C01EA0610FB1401EA06159
:101100002046FFF724F94FB1D4E901213846904732
:10111000206A401C2062C01C206206E0206AFAE7B8
:10112000D4E9012115F8010B9047761EF8D220462C
:10113000FFF724F9BDE8F0814E414E006E616E006C
:10114000494E4600696E66002DE9F0478146164615
:101150008AB035487844D0E9002380680092CDE910
:101160000130314878440C38D0E9022300690392F9
:101170004FF03702CDE9043041F69B30014491FB3A
:10118000F2F0A0F1800502FB10141B3C02D5644272
:10119000012000E00020DFF890A080460027FA44FC
:1011A000AAF1C60A0DE0E00709D03246684607EB0F
:1011B00047010AEB810100F04EFB8DE80700641047
:1011C0007F1C002CEFD1184F7F44B43F17E0E80795
:1011D00013D007EB04100DF1180A90E80E00AAE8EE
:1011E0000E00C068F04201D198190890324606A955
:1011F00003A800F030FB03AB07C36D10641C002D87
:10120000E5D132466946B8F1000F03A802D000F0DC
:101210000EFB01E000F01FFBC9E90001C9F808203E
:101220000AB0BDE8F0870000A84300000446AFF311
:1012300000802046FEF7EDFF70B505460C460A20FB
:1012400000E06D1C00F03AF835B128780028F8D19C
:1012500002E0641C00F032F814B120780028F8D1C4
:10126000BDE870400A2000F029B8000010B5012840
:1012700005D0002103A0FFF7DFFF012010BD09A169
:10128000F8E7000053494752544D454D3A204F75F9
:1012900074206F662068656170206D656D6F72796E
:1012A000000000003A2048656170206D656D6F7226
:1012B0007920636F727275707465640008B5694651
:1012C0008DF800000320ABBE08BD00004FF0013CCC
:1012D00050F8042B51F8043B9A4221D1A2EB0C03A5
:1012E000934313EACC1317D150F8042B51F8043B65
:1012F0009A4215D1A2EB0C03934313EACC130BD102
:1013000050F8042B51F8043B9A4209D1A2EB0C038C
:10131000934313EACC13DBD04FF00000704700BFBB
:10132000D01A01BAB1FA81F101F0180122FA01F0E4
:10133000CB40C1F12001DBB2C0B2C01A2CFA01F3DC
:10134000D11A914311EAC311E6D170475FEA400C0C
:1013500008BF91F0000F4FEA8C234FEAC12243EA05
:1013600051514FEA1C5018BF00F5F0404FEA3000D1
:1013700018BF41F000415FEA6C5C00F02980BCF1CD
:10138000FF3F08BF40F080407047130C06BF1204B7
:101390004FF0100C4FF0000C130E04BF12020CF1B2
:1013A000080C130F04BF12010CF1040C930F04BFBF
:1013B00092000CF1020CD30F04BF52000CF1010C8F
:1013C00011464FF00002A0F11F00A0EB0C00704787
:1013D00011F0004F08BF704731F000413FF4D5AF26
:1013E0000B0C06BF09044FF0100C4FF0000C0B0E55
:1013F00004BF09020CF1080C0B0F04BF09010CF12A
:10140000040C8B0F04BF89000CF1020CCB0F04BF3E
:1014100049000CF1010CCCF12003A0EB0C0022FAE6
:1014200003F302FA0CF241EA030100F101007047F4
:1014300020F07F4C80EA030023F07F47ACEB0703EA
:1014400003F57C5300F0004003F1FF032DE98049D0
:101450004FEA154B09B44FEA144325EA0B4E24EA30
:1014600003480FF2042606EB132749083E785FEA8B
:10147000320203FB0667C7F5000707FB06F64FEAD3
:1014800054374FEAD64606F1020607FB066CCCF14C
:10149000005C4FEA1C472CEA074C07FB06F40CFBE8
:1014A00006F504EB15464FEA961634BF00204FF0C0
:1014B00000404FEAD13706FB07FC4FEA1C4C0CFBFF
:1014C0000BF7D21B03FB0CF761EB07010CFB0EF7CC
:1014D000B0EB074072EB17420CFB08F734BFA2EBEE
:1014E0000742B2EB074261EB17414FEA0C444FEA67
:1014F000910706FB07FC4FEA1C4C0CFB0BF7B0EB0B
:10150000C74072EB573203FB0CF734BFA2EBC74264
:10151000B2EBC74261EB57310CFB0EF7B0EBC700E3
:1015200072EB57720CFB08F734BFA2EBC702B2EBA9
:10153000C70261EB5771039F4FEA816141EA921143
:1015400004EBCC044FEAD1374FEA826206FB07FC7A
:1015500042EA90124FEA80604FEA1C4C0CFB0BF7FA
:10156000D21B03FB0CF761EB07010CFB0EF7B0EB92
:10157000074072EB17420CFB08F734BFA2EB07429F
:10158000B2EB074261EB17414FEA8C554FEA9107E6
:1015900004EB9C2406FB07FC4FEA1C4C0CFB0BF7EE
:1015A000B0EBC74072EB573203FB0CF734BFA2EB32
:1015B000C742B2EBC74261EB57310CFB0EF7B0EB01
:1015C000C70072EB57720CFB08F734BFA2EBC702DF
:1015D000B2EBC70261EB577115EB4C254FEA816105
:1015E00041EA92114FEA82624FEAD13742EA901201
:1015F00006FB07FC44F100044FEA80604FEA1C4CF4
:101600000CFB0BF7D21B03FB0CF761EB07010CFB88
:101610000EF7B0EB074072EB17420CFB08F734BF34
:10162000A2EB0742B2EB074261EB174115EB1C1529
:101630004FEA813141EA92414FEA823242EA9042D6
:101640004FEA80304FEA0C7644F1000448EA034345
:101650004EEA0B484FF0000EB2EB080C71EB03079B
:1016600024BF624639464EEB0E0E4FF0000B0018B9
:10167000524149414BEB0B0BB2EB080C71EB0307EA
:101680007BF1000B24BF624639464EEB0E0E4FF045
:10169000000B0018524149414BEB0B0BB2EB080C0D
:1016A00071EB03077BF1000B24BF624639464EEB1A
:1016B0000E0E51EA020718BF46F0010616EB0E7631
:1016C00055F1000254F1000103D5BDE88901BDE8E0
:1016D0000088BDE88901BDE80048B619524141EBD8
:1016E0000101A3F10103704780807F7E7D7C7B7ABE
:1016F0007978777676757473727171706F6E6E6DBE
:101700006C6C6B6A6A696868676666656464636363
:1017100062616160605F5F5E5E5D5D5C5C5B5B5AE9
:101720005A59595858575756565555555454535356
:1017300052525251515050504F4F4F4E4E4D4D4DB1
:101740004C4C4C4B4B4B4A4A4A49494948484847FC
:10175000474747464646454545444444444343433A
:101760004342424242414141002B26D4770021D0DE
:101770001CB54FEA370703B44FF010004FF01001CB
:101780004FF000000FBCBDE810400BF1010BBBF1A6
:10179000010F08BF5FEA170722BF12F1010211F122
:1017A00001014FF0004143F1000300F0004043EA23
:1017B00000007047F9D35708DAE746EA064613F106
:1017C000400F4FEA16461FDD13F1200FDFBF16430F
:1017D0000A46002120335B42C8D0C3F1200746EA05
:1017E000064602FA07F74FEA164646EA0706C3F12D
:1017F000200722FA03F201FA07F721FA03F14FF06A
:10180000000342EA0702B1E746EA020646EA064654
:101810004FEA164646EA0106BCBF46EA0646360CC3
:101820004FF000034FF000024FF000019EE72DE95A
:10183000C048934630B491E8380007C831EA400CFC
:1018400048BF34EA430C03D5FFF7F2FDFFF78CFFE6
:10185000F0BCBDE800882DE9C048934630B491E85B
:10186000380007C810F0804F08BF13F0804F03D135
:1018700000F005F8FFF778FFF0BCBDE8008820F025
:101880007F4780EA030023F07F4C07EB0C03A3F5AE
:101890007C5300F00040A3F1FE0392F0000F00F033
:1018A000B38095F0000F00F077802DE901494FEAF1
:1018B00011404FEA144621EA004800FB06FC24EAE6
:1018C000064708FB06F607FB08F800FB07F718EBCE
:1018D00006484CEB164C4FEA124B18EB07484FEA00
:1018E00015464CEB174022EA0B4E0BFB06FC25EA93
:1018F00006470EFB06F607FB0EFE0BFB07F71EEB7B
:10190000064E4CEB164C4FF000061EEB074E4CEB10
:10191000174B18EB0B0840F1000018EB0E0B58EBBF
:10192000000840F100008F1A4FF000013CBFC9438E
:10193000661B14BFB5EB040C00213CBFC943F61B6A
:101940004FEA17444EEA8E0E27EA04454FEA1C4739
:1019500004FB07622CEA074C05FB07F70CFB05F6B6
:1019600004FB0CFC16EB074642EB174216EB0C4649
:1019700042EB1C421BEB060658EB0202414146EAD1
:101980009E0601D5BDE80189B619524141EB01011E
:10199000A3F10103BDE801894FEA14454FEA11475D
:1019A00024EA054621EA074C05FB07F406FB07F786
:1019B0000CFB06F105FB0CFC11EB074144EB174453
:1019C0004FEA124711EB0C4144EB1C4422EA074C4E
:1019D00005FB07F206FB07F70CFB06F605FB0CFC04
:1019E00016EB074642EB174216EB0C4642EB1C4542
:1019F0006A1854F1000148BF7047B619524141EBD3
:101A00000101A3F10103704795F0000F37D04FEAB1
:101A100011424FEA144721EA024624EA074C02FB2E
:101A200007F106FB07F70CFB06F402FB0CFC14EBBA
:101A3000074441EB17414FEA154714EB0C4441EBC7
:101A40001C4125EA074C02FB07F506FB07F70CFBD8
:101A500006F602FB0CFC16EB074645EB174516EBAA
:101A60000C4645EB1C42121951F1000148BF70476A
:101A7000B619524141EB0101A3F1010370474FEA4E
:101A800014454FEA114724EA054621EA074C05FBB5
:101A900007F106FB07F70CFB06F24FF0000605FB0B
:101AA0000CFC12EB074241EB174112EB0C4251EBDD
:101AB0001C4148BF7047921841EB0101A3F101039B
:101AC0007047000010B54FF48030054908630548A1
:101AD00000680068016903480068884710BD00007D
:101AE000004003401C00001010B50248006800F0E0
:101AF00041FB10BD3000001010B5FEF7B6FB0749E2
:101B00000860002105480068054A126890470349AB
:101B1000086008460068FEF79FFB10BD48000010F3
:101B20001000001010B5FEF7A0FB0A4908600A4833
:101B30000068401C08490860012106480068074AFF
:101B4000126890470349086008460068FEF784FB66
:101B500010BD000044000010140000101000001020
:101B600020208649086000BF8448006810F0400FBC
:101B7000FAD00320824908604FF000008149C1F883
:101B8000A801814908604FF0010080490860804841
:101B9000804908604FF00100A1F1040108604FF096
:101BA000AA007D4908604FF055007649C1F88C00C5
:101BB00000BF7A48006810F0806FFAD0032078499F
:101BC00008604FF0AA006F49C1F88C004FF0550033
:101BD000714908604FF02300724908604FF001001E
:101BE000A1F1040108604FF0AA006F4908604FF0AE
:101BF0005500086000BF6D48006810F4806FFAD08F
:101C000003206B4908604FF0AA005E49C1F8AC00A0
:101C10004FF05500644908606648674908604FF016
:101C200000005849C1F8C8010846D0F88800C0F340
:101C30000160032868D15548006810F0030006D001
:101C4000012823D002283FD003285CD100E000BF48
:101C500052480068C0F30E0000F101004FEA400056
:101C6000564900FB01F04749D1F88810C1F30741FC
:101C700001F10101B0FBF1F141480068C0B200F18F
:101C80000100B1FBF0F04E4908603CE043480068B9
:101C9000C0F30E0000F101004FEA4000494900FB8B
:101CA00001F03849D1F88810C1F3074101F1010171
:101CB000B0FBF1F132480068C0B200F10100B1FBA5
:101CC000F0F03F4908601EE034480068C0F30E00A1
:101CD00000F101004FEA40004FF4FA4100FB01F02F
:101CE0002849D1F88810C1F3074101F10101B0FB87
:101CF000F1F123480068C0B200F10100B1FBF0F03F
:101D00002F49086000BF2FE02048006810F0030052
:101D100006D0012810D0022819D0032823D100E0D2
:101D200000BF17480068C0B200F101002349B1FBB1
:101D3000F0F02349086016E011480068C0B200F1D5
:101D400001002049B1FBF0F01D4908600BE00C4890
:101D50000068C0B200F101004FF4FA41B1FBF0F0AD
:101D60001749086000BF00BF0648006820F47040B3
:101D700040F480400349086070470000A0C10F4054
:101D800004C10F4000C00F40ACC10F400CC10F4058
:101D90006300050084C00F408CC00F4088C00F4016
:101DA00080C00F40A4C00F40ACC00F40A8C00F407F
:101DB000A0C00F40DE872804C4C00F4000093D00CA
:101DC00000000010001BB70010B50248006800F0CA
:101DD000D1F910BD2000001010B50248006800F0D5
:101DE000C9F910BD2400001010B50248006800F0C9
:101DF000C1F910BD2800001010B50248006800F0BD
:101E0000B9F910BD2C00001010B504480068006836
:101E1000816A02480068884710BD00003400001045
:101E200010B5044800680068816A02480068884765
:101E300010BD00003800001010B5044800680068AC
:101E4000816A02480068884710BD00003C0000100D
:101E500010B50248006801F001FB10BD4000001001
:101E600000F01F020121914042094FF0E02303EBF3
:101E70008202C2F8001170472DE9FF4F9BB0154652
:101E80001E464FF0010B002402E04FEA4B0B641C8E
:101E90001C988442F9DB4FEA6B0019904FF000095F
:101EA000002436E04C4525DA05EBC40003C8CDE933
:101EB000120106EBC40003C8CDE9100105EBC9000F
:101EC000D0E9001005EBC402C2E9001006EBC9001E
:101ED000D0E9001006EBC402C2E9001005EBC9020C
:101EE000DDE91210C2E9001006EBC902DDE91010AD
:101EF000C2E9001019981A9005E01A98A9EB000998
:101F00001A9840101A901A984845F6DD1A9881449C
:101F1000641CABF10100A042C4DC00218F48CDE974
:101F200014100027B8460120169000201890E2E017
:101F30001698179016984000169000218848CDE911
:101F40000A10089109914FF00009A2E04C466CE09C
:101F5000179804EB000A06EBCA0003C8CDE900019C
:101F6000DDE9082302F028F9CDE9040105EBCA00F8
:101F700003C8CDE90001DDE90A2302F01DF9CDE92E
:101F80000201DDE9042302F0FBFACDE90E0105EBC5
:101F9000CA0003C8CDE90001DDE9082302F00CF90D
:101FA000CDE9040106EBCA0003C8CDE90001DDE973
:101FB0000A2302F001F9CDE90201DDE9042301F071
:101FC000A3FECDE90C0105EBC40003C8CDE9040173
:101FD000DDE90E2302F0D4FA05EBCA0203C206EBD8
:101FE000C40103C9CDE90401DDE90C2302F0C8FAFC
:101FF00006EBCA0203C205EBC40003C8CDE9040125
:10200000DDE90E2301F080FE05EBC40203C206EBFE
:10201000C40003C8CDE90401DDE90C2301F074FE1E
:1020200006EBC40203C2169804445C4590DB3A46B2
:102030004346DDE9080102F0BFF8CDE90401DDE91E
:102040001423DDE90A0102F0B7F8CDE90201DDE968
:10205000042302F095FACDE90601DDE91423DDE958
:10206000080102F0A9F83A464346CDE90401DDE94A
:102070000A0102F0A1F8CDE90201DDE9042301F033
:1020800043FECDE90801DDE90601CDE90A0109F1C8
:10209000010917988145FFF659AF00203049DDE965
:1020A000142302F06DFA00224FF08043CDE90201C3
:1020B00001F0D2FECDE9040101F072FD0746884629
:1020C0001B98012801D188F0004800202449DDE94F
:1020D000142301F019FE00224FF08043CDE90201E4
:1020E00001F0BAFECDE9040101F05AFDCDE9140179
:1020F0001898401C18901C9918988842FFF618AF41
:102100001B98012826D1002422E0584602F029F825
:10211000CDE9040105EBC40003C8CDE90201DDE906
:10212000042301F099FE05EBC40203C2584602F0F5
:1021300018F8CDE9040106EBC40003C8CDE902019B
:10214000DDE9042301F088FE06EBC40203C2641C2F
:102150005C45DADB01201FB0BDE8F08F0000F0BF66
:102160000000F03F024B03608180C2807047000096
:102170002055000010B504466069006810F0010F9A
:1021800007D00120616908602068016920468847FE
:1021900003E0606900686169086010BD2DE9F047DF
:1021A00088B004460E46914622464A48206002F115
:1021B000080000F085FFA0F1080200BF1446464861
:1021C00010602674207C052804D2DFE800F0040D9E
:1021D000151D250028E04FF0402060613F48046055
:1021E0000120FFF73DFE1FE03D4860613D4804606F
:1021F0000220FFF735FE17E03B4860613B48046072
:102200000320FFF72DFE0FE0394860613948046074
:102210000420FFF725FE07E0374860613748046077
:102220000920FFF71DFE00BF00BF484602F048FC32
:102230008046334902F08CFC0746324902F088FCA4
:102240008246012507E005EB850045002E495046F2
:1022500002F020FB82462D49504602F045FDF2D3A4
:10226000504602F0F5FBE060284601F091FF07467A
:102270008846E06801F08CFF0022254BCDE9000183
:1022800001F09AFF3A464346CDE9020101F094FF7E
:102290000022204BCDE9040101F0DEFDCDE906016D
:1022A00001F032FF6060681E6169C8606169E068C2
:1022B0008861032061694861207C042803D10920DA
:1022C0006169486002E0012061694860204608B009
:1022D000BDE8F087685700003C5500002000001062
:1022E0000080004024000010000009402800001079
:1022F000004009402C000010008001403000001018
:1023000020BCBE4BBD3786350000204100FF7F4713
:1023100080842E4184D777410146487918B90879DD
:1023200008B1012070470020FCE70146487918B148
:10233000087908B9012070470020FCE710B5044671
:1023400004F1080000F06AFFE179884201D0012021
:1023500010BD0020FCE701464879704710B50446DF
:10236000607920712068416920468847607110BDFE
:102370002DE9F04104460F4690461D46069E0E4844
:1023800020604246394604F1080000F077FFA0F1D2
:102390000804002060712071A071E671314604F1DB
:1023A000080000F048FF294604F1080000F05BFF38
:1023B0002046BDE8F0810000585500000149016049
:1023C000704700009C5500002DE9F04704460321AA
:1023D000284800F078FE804602F072FB0746264946
:1023E00002F058FA0646254902F0B2FB054604F50C
:1023F00004742168E06802F0ABFB0746616860691D
:1024000002F0A6FB80462946206902F0A1FB814626
:10241000414602F0CBF90646394602F0C7F9206082
:102420002068A4F50474002102F05EFB01D20020B4
:1024300009E01249D4F8100202F056FC01D20F480C
:1024400001E0D4F81002C4F81002D4F80812481CB5
:10245000C4F8080204F1080040F82150D4F808023A
:10246000802805DB012084F80C020020C4F8080253
:10247000BDE8F0871801001000FF7F4700409C4531
:102480002DE9F04104460021204600F0FDFD044600
:10249000164820601648C4F818021648D4F81812D6
:1024A00002F056FB07464FF07E5102F051FB064604
:1024B000114902F0EFF90546284601F0A9F9C4F8E0
:1024C0001C024FF07E50D4F81C1202F079FC054635
:1024D0004FF0804102F0DEF9C4F82002D4F8200267
:1024E000C4F824022046BDE8F0810000AC5500008D
:1024F00000000C432506C9C000007A442DE9F043D2
:1025000007460C4600216DE0DFF8EC8058F821808A
:10251000B7EB184F65D1DFF8E08038F82180C8F3B9
:102520000335DFF8D48038F82180C8F30712DFF8CC
:10253000C88018F8218008F00F0C4FEA02784FEAA3
:10254000D8634FEA450808EB1216DFF8B08008EBB5
:1025500086004FF0030909FA03F9D0F8008028EA51
:102560000908C0F800800CFA03F9D0F8008048EAA6
:102570000908C0F80080DFF8848008F1400808EB03
:1025800086004FF0030909FA03F9D0F8008028EA21
:102590000908C0F8008004F0030909FA03F9D0F82B
:1025A000008048EA0908C0F80080DFF8508008F190
:1025B000680808EB85004FF0010909FA02F9D0F824
:1025C000008028EA0908C0F80080C4F3001909FA5D
:1025D00002F9D0F8008048EA0908C0F80080BDE898
:1025E000F083491CDFF8108058F82180B8F1000F03
:1025F0008AD100BFF3E700006000001000C0024075
:1026000010B5044604F1080000F025FE10BD10B519
:10261000044604F1080000F0F9FD10BD2DE9F04179
:1026200004460E46174600F071FE2046FFF7EFFF06
:10263000002506E0715D606803681A689047681CB1
:1026400085B2BD42F6DB2046FFF7DAFF00F04EFE12
:10265000BDE8F0810246074810604868064BC2E9B1
:102660000103CB68D3600B7C13744B691046536134
:1026700070470000A4570000DC5700002DE9F0412E
:1026800004460D4616461F460E48206065603A46D1
:10269000314604F1080000F0F1FDA0F108044FF00C
:1026A0000108217CE068026853684246984700BFF1
:1026B00000BF6169E06803689A68904700BF2046E0
:1026C000BDE8F081A4570000014901607047000097
:1026D000B855000010B5002203681B788B4207DC58
:1026E00003685B788B4203DB03681B78CB1ADAB292
:1026F000D0E90043A47802FB0433836010BDF0B539
:1027000003460C46184600F093FF02FB004085B2DA
:10271000986800EBE500007805F007078021394153
:1027200000EA01060EB10120F0BD0020FCE70160C7
:1027300042604368836070470246002000BF0B4B35
:10274000DB6813F0010FFAD0084B996000BF074B0C
:10275000DB6813F0100FFAD102E0044B9B68D8B28B
:10276000024BDB6813F0040FF7D170470000034001
:10277000F0B506460C4615463046FFF7A5FF06465F
:102780001E483060002700212520FFF7B7FE0021FA
:102790001520FFF7B3FE00211820FFF7AFFE184801
:1027A000006840F480601749C1F8C400062C04D2C8
:1027B000DFE804F00406080A0C0E00BF312709E028
:1027C000182707E00B2705E0052703E0022701E0B3
:1027D000002700BF00BFC5F30010072141EA8010A9
:1027E00005F0010140EAC11040EA072006490860EF
:1027F0000220086148603046F0BD0000C855000066
:10280000C4C00F4000C00F400000034070B5044634
:102810000D462046FFF7D2FD04460448206065605F
:102820006068026811688847204670BDD85500006E
:102830000181428170472DE9F84F0446894692464E
:102840001D460A9E009620682B4652464946C76B95
:102850002046B84700270FE04FF0000808E0A18BA2
:102860002068426C2046904708F101001FFA80F86A
:10287000A845F4DB781C87B2B742EDDBBDE8F88FE2
:1028800041837047C1837047818370472DE9F84FBA
:1028900004468946494604F10C00FFF71BFF04F18A
:1028A0000C0000F0C9FE217E4843401C85B204F1B3
:1028B0000C0000F0BDFE217E00FB01F60095628950
:1028C000218920683346C76B2046B84700252EE093
:1028D000002727E000261DE02A46314604F10C00BF
:1028E000FFF70DFF82464FF000080EE0BAF1000F2F
:1028F00001D0E08B00E0608B01462068426C2046EE
:10290000904708F1010000F0FF08207E4045EDDC13
:10291000701CC6B204F10C0000F08AFEB042DBDC91
:10292000781CC7B2207EB842D4DC681CC5B204F162
:102930000C0000F081FEA842CADC04F10C0000F09B
:1029400077FE2189227E02FB00102081BDE8F88FEE
:102950003FB50446079D14220A212046FFF702FCDA
:1029600004460B48206001A807C8C4E90412E060CF
:1029700025761F2060834CF21860A0834FF6FF700D
:10298000E083002020816081204604B030BD00003B
:10299000EC5500001CB5044604F1080001F052F9A2
:1029A000D0B92068816820468847012802D00228D3
:1029B00010D107E00120019001A904F1080001F005
:1029C00051F908E002200090694604F1080001F086
:1029D00049F900E000BF00BF04F1080001F032F93E
:1029E000D0B92068416820468847032802D00428CF
:1029F00010D107E00320019001A904F1080001F0C3
:102A000031F908E004200090694604F1080001F063
:102A100029F900E000BF00BF1CBD10B504462069C5
:102A200088B1206902689169884720690268916AC3
:102A3000884708B1032010BD20690268516A8847A1
:102A400008B10420F7E70020F5E700002DE9F04188
:102A500005460F4616460021284600F015FB0546A0
:102A60000F48286005F108044FF014080020207179
:102A70006071A07184F80780E079002803DDE079B7
:102A800000F0DEFD206000BFA4F108052F6126B133
:102A9000306829464268304690472846BDE8F081B4
:102AA0003C56000070B504460D4660680168CA696E
:102AB0002946904770BD70B504460D4660680168B0
:102AC0004A6A2946904770BD2DE9F84304460D46F1
:102AD00016461F46DDE90889606801680A6A4946AA
:102AE0009047CDF80080606801683B463246D1F8D7
:102AF00030C02946E047BDE8F88310B50446606859
:102B000002681168884710BD2DE9F04104460F4660
:102B100090461D466068016842468B6A3946984770
:102B2000002606E0A95D606803689A689047701CFB
:102B3000C6B2A85D0028F5D1BDE8F08170B50446A5
:102B40000D462046FFF73AFC0446044820606560C5
:102B50002046FFF7D2FF204670BD0000505600000F
:102B600010B50446322000F0B3FB002207212046B6
:102B700000F058F94FF480720121204600F052F91C
:102B80004FF4C0620221204600F04CF900220421DB
:102B9000204600F047F940F207220821204600F0C5
:102BA00041F900220921204600F03CF900220A21C7
:102BB000204600F037F900220C21204600F032F9BF
:102BC00000220D21204600F02DF900220F21204681
:102BD00000F028F900221021204600F023F90022FD
:102BE0001121204600F01EF900221221204600F09B
:102BF00019F900221321204600F014F9C82000F032
:102C000067FB41F2B0221021204600F00BF90722A9
:102C10001121204600F006F9322000F059FB40F265
:102C200085121221204600F0FDF8322000F050FB02
:102C30004FF4A0521321204600F0F4F80E2229216F
:102C4000204600F0EFF800222A21204600F0EAF8A2
:102C5000322000F03DFB4FF41C526021204600F072
:102C6000E1F801226121204600F0DCF800226A210F
:102C7000204600F0D7F800228021204600F0D2F84C
:102C800000228121204600F0CDF80022822120463A
:102C900000F0C8F800228321204600F0C3F800228B
:102CA0008421204600F0BEF800228521204600F055
:102CB000B9F810229021204600F0B4F800229221A9
:102CC000204600F0AFF803229321204600F0AAF836
:102CD0004FF488729521204600F0A4F80022972135
:102CE000204600F09FF800229821204600F09AF834
:102CF00041F238020321204600F094F8002084F8C5
:102D00003800204600F09BF84FF4897207212046D6
:102D100000F088F810BDF8B50446F0200090206857
:102D20004FF4A07300221146C56B2046A84700252A
:102D30000CE0002606E0618B2068426C204690473C
:102D4000701C86B2F02EF6DB681C85B2B5F5A07F4C
:102D5000EFDBF8BD2DE9F04105460C4616461F464F
:102D6000DDF8188032465021284600F05BF806EB6B
:102D70000800401E82B25121284600F053F8224636
:102D80005221284600F04EF8E019401E82B253212D
:102D9000284600F047F832462021284600F042F845
:102DA00022462121284600F03DF82221284600F045
:102DB0000DF8002085F83800BDE8F08170B50446B4
:102DC0000D462946204600F017F870BD38B5054677
:102DD0000C4608A00068009020128DF80100E0B2B7
:102DE0008DF802000322694605F12000FFF716FC6A
:102DF00038BD00007000000038B505460C4608A03C
:102E00000068009020128DF80100E0B28DF80200F9
:102E10000322694605F12000FFF700FC38BD0000E1
:102E20007200000070B505460E461446314628462D
:102E3000FFF7CCFF21462846FFF7DEFF70BD10B537
:102E4000044694F83800B8B9002250212046FFF714
:102E5000E9FFEF2251212046FFF7E4FF0022522133
:102E60002046FFF7DFFF40F23F1253212046FFF7D5
:102E7000D9FF012084F8380010BD00000FB4F8B568
:102E800005460E4614460C9F0097284609A90EC910
:102E9000FFF75EFD05460E482860314605F120002B
:102EA000FFF7D8FBA0F12005206801210268204629
:102EB00090472068C168204688472846FFF750FEA3
:102EC00020684168204688472846F8BC5DF814FB16
:102ED0009456000010B50446E08A10B1E08A401E06
:102EE000E082A069A8B1A069026891698847A069D9
:102EF0000268916A884740B9E08A50B9A08A40B117
:102F0000A0690268D169884718B1A08AE0820120CF
:102F100010BDE069A8B1E069026891698847E0697D
:102F20000268916A884740B9E08A50B9A08A40B1E6
:102F3000E0690268D169884718B1A08AE08202205E
:102F4000E6E70020E4E700002DE9F04704460E46DE
:102F500017469846DDE908592A4641462046FFF7BC
:102F600075FD04460E482060A661E76185B12868BA
:102F700001682846884758B128680168284688476C
:102F80004FF47A7109FB01F1B1FBF0F0A08201E08E
:102F90000020A082A08AE0822046BDE8F0870000E1
:102FA000E45600000FB4F0B5C3B04D9E4C9D4FA841
:102FB000019002A8019A4E99FDF78EF90020019028
:102FC00000F018F8046820682946426920469047B6
:102FD00020683146026920469047499882B2489855
:102FE00081B2206802AB87692046B84743B0F0BC85
:102FF0005DF814FB10B50848007810F0010F08D1F7
:10300000054800F04AFB20B1044800BF0248AFF376
:103010000080024810BD0000DC000010E00000103D
:103020007FB582B00A9DFFF7E5FF0468059880B27E
:10303000CDE90005049883B2039882B2029881B268
:103040002068466A2046B04706B070BD10B5029CA5
:10305000016042608360C46010BD03460A4619687F
:1030600008E0914201D100207047486808B14968E2
:1030700000E001E00029F4D100BF09B14A6000E09E
:103080001A600120F0E7704730B504460D46054848
:103090002060002060601DB121462846FFF7DDFF5B
:1030A000204630BDD057000070B505462C6804E0BE
:1030B00020680168204688476468002CF8D170BDFC
:1030C00000210160704710B502460B4600F01EF962
:1030D000107C08B9012100E0002102F1080050F83D
:1030E000210030F8134000F001F9204610BD10B562
:1030F00004462068416920468847217C09B10122A5
:1031000000E0002204F1080151F82210A27E21F80B
:103110001200E07E401CE076E07E617E884209DAA3
:10312000E17E6069405CA076A17E206882692046CD
:10313000904707E00020E076E17E6069405CA07681
:103140000020207710BD70B504460D46207EA842B1
:1031500017DD607E217E884213DA0020627EA1683E
:1031600021F812000021627EE06820F81210617ED2
:10317000481C60766069455420682946C26920462B
:10318000904770BD10B50446607EA0B1207F90B915
:103190000020E076E17E6069405CA076207C08B982
:1031A000012000E00020207401202077A17E20680B
:1031B00082692046904710BD70B504460D461646FC
:1031C00000212046FFF760FF04460F48206026B12B
:1031D000306821464268304690470020A076E0766D
:1031E00060762576680000F02BFAA060680000F099
:1031F00027FAE060284600F023FA6061002020747E
:103200002077204670BD0000F856000010B5044637
:10321000E168606803681A69904710BD10B50446FC
:103220006068026851698847E168084201D001205E
:1032300010BD0020FCE770B504460D462DB1E168D5
:10324000606803689A68904704E0E1686068036812
:103250001A69904770BD10B50446E168606803685C
:103260009A68904710BD70B504460D46217A606893
:10327000026853682A46984770BD000010B5044B99
:10328000036041600272047A0123A340C36010BD51
:10329000DC57000001490160704700002057000022
:1032A0002DE9F0410446204600F072FF0546002259
:1032B000064B00F081FF074600F026FF84B201E0D4
:1032C000601E84B2002CFBDCBDE8F0810080304041
:1032D00010B5044605E04FF47A70FFF7E1FF601E79
:1032E00084B2002CF7DC10BD70470000064800785F
:1032F000002804DD04480078401E03490870024895
:10330000007800B962B670470C00001072B603482E
:103310000078401C01490870704700000C00001044
:1033200000B503460A46FEF71BFCFFF7DDFF0AB1B6
:10333000FFF7ECFF184600BD01238B40026A1A43D9
:1033400042F08072014B1A60704700000040034059
:1033500030B505460C46082C05D2DFE804F0050A16
:103360000F14191E232800BF02210020FFF7C6F802
:1033700022E002210120FFF7C1F81DE002210846EA
:10338000FFF7BCF818E002210320FFF7B7F813E0BD
:1033900002210420FFF7B2F80EE002210520FFF71A
:1033A000ADF809E002210620FFF7A8F804E00221A9
:1033B0000720FFF7A3F800BF00BF30BD0146024859
:1033C000406880B2704700000040034070B504467A
:1033D0000D462A4608212046FFF7EEFE04460F4818
:1033E00020600F4804600F48006840F480500E4988
:1033F000C1F8C4000D48006840F400100B49086093
:103400004FF48070C8600A482062206A08604FF05C
:103410001600FEF725FD204670BD00004057000055
:103420001C000010C4C00F4000C00F40004003400B
:103430000001200010B5044604F10800FFF734FE37
:1034400010BD01464868704730B504460D46294610
:1034500004F10800FFF701FE30BD00002DE9F04740
:1034600007462F48D0F8008018F0080F14D0082025
:103470002C4908602C49384600F064F82B4938463E
:1034800000F074F8044614F0100F03D03868816817
:1034900038468847BDE8F08718F4007F0CD02449EF
:1034A000384600F04FF82349384600F05FF80446EC
:1034B0004FF400701B49086018F0040F2ED01E480E
:1034C000D0F800904FF001054FF000061DE019EA1A
:1034D000050F17D029EA05091848056000BF1048F4
:1034E000006810F0200FFAD0154804684FEA660013
:1034F00006F0010240EAC2113868C4F38002036892
:1035000038469847701CC6B26D00202E02DAB9F119
:10351000000FDCD104200349086000BF00BFB9E7F9
:1035200000C2005008C200500005FE000002FE006C
:103530000005FB000002FB0030C2005038C2005002
:1035400014C200501022064B1A60064AC2F810122C
:1035500000BF054A126812F0100FFAD07047000041
:1035600008C2005000C0005000C200500246302087
:10357000064B18600648C0F8101200BF05480068E6
:1035800010F0200FFAD004480068704708C20050BD
:1035900000C0005000C2005014C2005010B512F01C
:1035A000010F07D043681B6801248C402343446803
:1035B000236006E043681B6801248C40A3434468F1
:1035C000236010BD4268D161704701464868406978
:1035D000704742689161704770B504460D462046B9
:1035E000FFF758FE044610482060052D04D2DFE89E
:1035F00005F004070B0F130000BF0C4860600FE0DC
:103600000A48203060600BE008484030606007E006
:1036100006486030606003E004488030606000BFAE
:1036200000BF204670BD00008457000000C0092084
:1036300001460868C07870470146086800797047FD
:1036400010B504462046FCF717FE10BD490050EAAD
:10365000C12018BF04204A0D18BF40F0010040F2FD
:10366000FF72B2EB515F08BF40F00200012808BFB3
:10367000052070474100080218BF04200A0E18BF39
:1036800040F001004FF07F4232EA010108BF40F0F4
:103690000200012808BF05207047016809B1002019
:1036A00070470121016008467047FCF77BFF6FF00F
:1036B0005E01080701F02DBC014800BF7047000003
:1036C000B809001030B587B000213A48FFF728FE4E
:1036D0004FF4FA6200213848FEF760FD64220421AD
:1036E0003648FEF75BFD00213548FFF775FF0121E5
:1036F0003448FFF771FF04213348FFF76DFF2E496F
:103700003248FFF763FE112205213148FFF730F8F8
:1037100006232B4A2E492F48FEF7B0FF1C222A49C8
:103720002D48FFF7ABFD04AD2C4C621D2146284609
:10373000FEF7FDFF00BF02200290DDE90501CDE9A3
:103740000001254A23492648049BFFF797FB24499B
:103750002448FFF75BF80120002318221949009044
:103760002148FEF705FE012000231A22154900908A
:103770001E48FEF7FDFD0120002314221149009090
:103780001B48FEF7F5FDC8200B49194B164ACDE939
:10379000001016491748FFF7D7FB002001231F220E
:1037A000084900901448FEF7E3FD1448FEF768FE50
:1037B00007B030BDB0000010E8000010000100109C
:1037C000B4000010BC000010C4000010180100106C
:1037D000CC0000103C010010540100108E4F00007E
:1037E00064010010D0000010A0010010B80100100A
:1037F000D0010010E801001008020010900700102E
:1038000030380A2801D2012070470020704700009C
:103810002DE9F04104464FF019404E49002500EBD8
:103820004400884230D94FF0FF4131EA040018D0FB
:103830004FF0CE41B1EB440F84BF4FF07E50BDE856
:10384000F0814549B1EB440F28BF01251CD202206D
:10385000FCF723FF14F0004F0FD0BDE8F041FFF755
:1038600026BF204614F5000F04BF0020BDE8F081FC
:103870000121BDE8F04101F04CBBBDE8F041612100
:103880004FF0E04001F045BB3449204601F060F9BB
:1038900001F05CFA804601F0BFF806463049404628
:1038A00001F056F907462F49404601F051F92146EB
:1038B00001F07CFA394601F083FA04462A4901F006
:1038C00047F92A4900F072FF214601F041F96FF0F3
:1038D000414100F06BFF214601F03AF9244900F024
:1038E00065FF214601F034F90146224806F0030441
:1038F000784450F8240001F02BF91F49794451F81D
:10390000241000F053FF1D49794451F8241000F0B1
:103910004DFFB110D5B101F0FCFA04000BD0B4F1A9
:10392000FF4F0FD0FFF7A6FE042808BFFFF7BFFE2A
:103930002046BDE8F0810220FCF7AFFEBDE8F04173
:10394000FFF7B5BE0220FCF7A8FE96E7BDE8F04100
:1039500001F0DFBA0000501E0000A0853BAAB8406D
:10396000F4FD05370070313E12BB2A3D12BB2A3EE2
:10397000FFFF7F3F501B0000341B0000181B00009E
:10398000ADF6480D7B490DF50460FFF7D7F80DF54E
:1039900004644FF4A075F026FFF72CFB04602B465F
:1039A000002211460AA80096FFF750FB724990E8E2
:1039B0008C00C06881E88C00C86000BF00200090C7
:1039C00008460FC8FFF72CFB03216C48FFF7BBFB31
:1039D0006B496C48FFF738FD00BF00200F904FF097
:1039E0007E500E90C4E0664890F80C020028F9D092
:1039F00000270BE06249083151F8270000F0AAFEC9
:103A00000DF5886202EBC70203C27F1C802FF1DB39
:103A100000205B4981F80C0210AB0DF5886207218C
:103A20000120FEF729FA002400254FF0010A37E0B3
:103A300010A800EBCA0003C8CDE9000110A800EBF4
:103A4000CA01D1E900713846DDE9002300F0B4FB7A
:103A5000CDE904010DF5886000EBCA0100EBCA0056
:103A6000D1E9007303C83A46CDE9000100F0A4FB98
:103A7000CDE90201DDE9042300F046F9CDE90601B4
:103A800000F08EF8CDE9080100F00CF983462146DC
:103A9000584601F029F901D25C4655460AF1010A5F
:103AA000BAF10E0FC4DB284600F0F2FF80464FF05B
:103AB0007C5101F085F90746334901F049F8064683
:103AC000304600F047FE82464FF020622F4B00F058
:103AD000C3F94FF038422E4BCDE9080100F06CFBE2
:103AE000074600F0DFF88146304600F033FE074617
:103AF00088461E2064230022114600900AA8FFF782
:103B0000A5FA824623A04FF6FF710022CDE9047882
:103B1000CDE9002102909AE80F00FFF743FA4846EA
:103B200000F018FE074688461E2064230246002146
:103B300000900AA8FFF78AFA824616A04FF6FF7196
:103B40000022CDE90478CDE9002102909AE80F0027
:103B5000FFF728FA10490E9800F028FE0E900F98F3
:103B6000401C0F900D48006818300C49086000BFD9
:103B700039E7000064010010B809001018010010B6
:103B800090070010E80000100000FA40B69A0342C7
:103B900078DEA14125660000CDCC4C3DD800001058
:103BA0002DE9F04106460F4600F004FC04000D46E6
:103BB00018BF0120284320F00040C0F17F6000F1D1
:103BC000E040C00F0ED0301C18BF0120384320F059
:103BD0000040C0F17F6000F1E040C00F04BF012051
:103BE000FCF75BFD20462946BDE8F08110B50029B1
:103BF0000AD00878002807D005487844FDF766FB0E
:103C0000002801D0002010BD0248784410BD0000FB
:103C1000161C00000E1C000010B500290AD0087800
:103C2000002807D005487844FDF750FB002801D054
:103C3000002010BD0248784410BD0000061C0000A2
:103C4000FE1B000000B50246FFF760FB9079D179BA
:103C5000884201DB012000E000200346FFF746FB1D
:103C6000184600BD30B502460B460024FFF74EFB58
:103C70009079D179884211DA187815791168485508
:103C80001179D079401E814202DA1079401C00E09F
:103C9000002010719079401C90710124FFF726FBE1
:103CA000204630BD21F00042A2F16052B2F5801FE3
:103CB00001F0004328BFD2F17F6C0BD95FEA001CF2
:103CC00043EAC20242EB507018BF704728BF20F091
:103CD00001007047B2F5801FBCBF184670474FEA1D
:103CE000410C1CF5001F02D2084600F0F8BF70B569
:103CF00000F00CFB00000089FFF7F6BF4FF000401A
:103D0000A0F580007047000010B591EA030F48BF8E
:103D100083F0004300F13C84841A71EB030C05D25C
:103D2000121943EB0C03001B61EB0C01DFF824E1DB
:103D30004FEA1154A4EB135C1EEA430F18BF9EEA2E
:103D4000445F73D023EA0E03DCF1200E21EA045114
:103D500043F4801332D322FA0CFE10EB0E0023FA48
:103D60000CFE41EB0E01CCF1200E03FA0EFE10EB1F
:103D70000E0051F10001B1F5801FCCF1200E32D2BE
:103D800001EB045112FA0EF2BDE8104058BF704723
:103D9000401C38BF5FEA420218BF7047002814BFBA
:103DA00020F0010041F100014FEA410313F5001F2B
:103DB00038BF7047A1F1C04100F0F6BA012A43EBC9
:103DC0000302ACF1200CDCF11F0E32BF4FF0000EED
:103DD00023FA0CF310EB030041EB0451B4EB115F39
:103DE000D0D0A1EB045101F5801149085FEA300001
:103DF00001EB04510ED350F1000038BF12FA0EFE51
:103E000008D1BDE81040C9E7401C38BF5FEA420254
:103E1000CAD1C3E7BDE810404FEA410313F5001FC4
:103E200038BF7047A1F1C04100F0BEBA9EEA445FBE
:103E300008D011EA5E0FBDE8104004BF01F0004158
:103E400000207047BDE8104070B500F05FFA00BF79
:103E500064FBBE3E0000E0FF2DE9C04130B4DFF856
:103E6000A0C23CEA111418BF3CEA131400F0EC8025
:103E700081EA03051CEA111444EAD57418BF1CEA50
:103E8000131500F0C780A4EB05044FF0004545EA88
:103E9000C12145EAC32341EA505143EA525304F198
:103EA0007F74994204F500344FEAC0204FEAC222E1
:103EB00008BF904200F09C804FEA13650FF2401655
:103EC000765D4FEA134506FB05F7C7F1807706FBE1
:103ED00007F74FEAD737A7FB03687642C8F5803863
:103EE000A7FB06CE38BFA8F1010807FB08E64FF094
:103EF000000EA6FB028CE6FB03CEDCF1000CCEF13B
:103F0000004E38BFAEF1010EA6FB0C584FF0000773
:103F10004FF00005E6FB0E87A1FB08C6A0FB07CE0D
:103F200016EB0E0645F10005E1FB076515F1E04EC5
:103F30007EBFA4F580345FEA46066D4116F1800726
:103F400045F100054FEA17274FEA066647EA05677D
:103F5000A6F1DE46B6F1805F4FEA15251FD9384637
:103F600024F0010C05EBC471BCF1FE6F01EB0C11E8
:103F700002D8F0BCBDE8008124425CBF01F5801E80
:103F80009EEAC47F02D4F0BCBDE80081244238D44C
:103F9000F0BCA1F1C041BDE8004100F005BA4FEA14
:103FA000D22242EA43524FEAD323A7FB02864FEACA
:103FB000D02040EA415007FB03661EEA0E0F4FEA8D
:103FC000D12105FB026658BFA6EB0056B6EB0056A2
:103FD0004FEA520E4EEAC37E18EB0E0E56EB530E0E
:103FE000BDD518EB02085E417F1C55F10005B6E710
:103FF0004FF480154FF000074FF000064FF0000817
:10400000ADE7F0BC4FF0000001F1C04101F000410C
:10401000BDE8008111EA0C1F0CEA131500D00CE07A
:1040200013EA0C1F00F025804FF00000F0BC81EA7D
:10403000030101F00041BDE80081F0BCBDE8004192
:1040400081EA030100F0B0B9F0BCBDE8004170B5F1
:1040500000F05CF9097EFC3E00F007B881EA03013C
:104060004FF0000001F00041704781EA030100F0C9
:104070009BB9F0BCBDE800414FF0000021497047FA
:10408000FFFDFBF9F7F5F4F2F0EEEDEBE9E8E6E41D
:10409000E3E1E0DEDDDBDAD8D7D5D4D3D1D0CFCDA4
:1040A000CCCBCAC8C7C6C5C4C2C1C0BFBEBDBCBBDD
:1040B000BAB9B8B7B6B5B4B3B2B1B0AFAEADACABD8
:1040C000AAA9A8A8A7A6A5A4A3A3A2A1A09F9F9EB2
:1040D0009D9C9C9B9A999998979796959594939364
:1040E000929191908F8F8E8E8D8C8C8B8B8A8989FB
:1040F000888887878685858484838382828181807E
:104100000000FF070000F87F4FEA1153A3F580631A
:10411000D3F11E03A8BFD3F1200C08DB4FF00042FF
:1041200042EAC12252EA505232FA03F07047094281
:104130000BD4102BC4BF0020704703F5787CBCF172
:10414000FF3F05D04FF0FF3070474FF00000704741
:1041500070B500F0DBF800BF499224800020704762
:10416000F0E710F0004248BF4042B0FA80F310FA86
:1041700003F10AD0C3F11D0303F580634FEA4150F8
:1041800002EB035202EBD12170474FF00000704761
:10419000B0FA80F310FA03F10AD0C3F11D0303F55E
:1041A00080634FEA41504FEA035202EBD12170473E
:1041B0004FF0000070470000DFF848C170B51CEAFE
:1041C000111E1EBF1CEA13159EEA0C0F95EA0C0F78
:1041D00000F06F8081EA030423EA4C134EEAD47E98
:1041E00021EA4C1141F4801143F48013AE44A1FB49
:1041F000024CA0FB0365AEF17F7E361955EB0C0532
:10420000A1FB034C4CF10003A0FB021C16EB0C06B7
:10421000654153F10003094218BF46F0010613F44B
:10422000007F0BD14FEA03314FEA0530340341EAF6
:10423000155140EA16506FF003020AE04FEAC3211D
:104240004FEAC520F40241EA555140EA56506FF05A
:10425000020202EB2E4201EB025585EACE710AD032
:104260005FEA440C18BF24F0004450F1000041F113
:10427000000120EAD47040F2FE7C624500D270BD9D
:10428000A84214BF4FF080444FF04044002E08BFB6
:104290000024BEF1806FA8BFA1F1C041BDE870400D
:1042A00080F282804FF0000001F1C04101F0004136
:1042B00070479EEA0C0F0CEA131518BF95EA0C0F15
:1042C00006D04FF0000081EA030E0EF0004170BDF1
:1042D00000F01CF88900013E00F007B800F009B8B2
:1042E0004FEA430C5FEA5C5C08D081EA030100F00E
:1042F0005BB84FEA410C5FEA5C5CF6D14FF000001E
:10430000014970470000FF070000F87F0EF1020E20
:104310002EF0030E5EF8046B364205D4012A43EBFF
:10432000030515F5001F12D8012841EB010C1CF5FF
:10433000001F0CD80ED14FEAD17C15F5001F0CEBF5
:104340004C0C0CF1020C08BF4CEBD37C04E04FF09A
:10435000080C01E04FEAD37C0CEB4C0526FA05F67D
:1043600006F00706B6F1040C06D20EEB860CBDE88B
:1043700070404CF0010C6047DFE80CF0090B0202C2
:104380004FF000414FF00000A1F5002170BD19462B
:104390001046012851EB010418BFD4F5001484BF66
:1043A000002001F0004170BD0808A0F500114FEA9F
:1043B000310170472DE9F04101F5801CBCF5001F6B
:1043C000C0F2C3804FEA115C21EA0C510CF1FD0CE4
:1043D00041F480115FEA5C0C0CF5C07C01D3400015
:1043E00049413DA4890241EA905187028E0E0A0C90
:1043F000A45D04FB04F602FB06F6C6F14046A4FBEE
:104400000662F60D46EA422606FB06F4A4FB0123EB
:104410005242C3F1404338BF5B1EA6FB0242002458
:10442000E6FB0324D20B42EA4446A6FB0623A1FB8B
:1044300002E2A3FB07E4A4184FF0000252F10002CD
:10444000E3FB01426442C2F1404E38BFAEF1010EBF
:10445000A6FB04234FF00002E6FB0E32A2FB03464C
:104460004FF00004B61954F10004E2FB0264A1FB12
:1044700006E6A4FB07E816EB08064FF0000858F123
:104480000008E4FB01687642C8F1405838BFA8F143
:104490000108A2FB06E4A3FB08E52D194FF0000478
:1044A00054F10004E2FB0854A1FB05E6A7FB04E875
:1044B00018EB06084FF0000656F10006E1FB0486F3
:1044C00018F1200556F10006A809A8F11B08B1094A
:1044D00008F03F08B8F10A0F40EA86601CD901EBEA
:1044E0000C51BDE8F08100BFFCF5EEE8E2DDD8D369
:1044F000CFCBC7C3C0BDB9B6B4B1AEACA9A7A5A355
:10450000A19F9D9B9A9896959392908F8D8C8B8965
:104510008887868584838281A0FB006800FB01F286
:1045200008EB4208B8EB872807D5341858EB01048C
:10453000D5D5401C51F10001D1E7341A78EB0104C4
:10454000CDD4401E71F10001C9E75FEA4C0C5FEA6F
:104550009C5C0DD105D34FF0000001F00041BDE897
:10456000F081BDE8F04170B5FFF7D0FE6DDBFFBE16
:10457000BDE8F0414FF00000004970470000F87FAF
:1045800010B591EA030F48BF83F000433FF5C4AB79
:10459000841A71EB030C07D212198CF0004C43EB18
:1045A0000C03001B61EB0C01DFF8A4E14FEA11548E
:1045B000A4EB135C1EEA430F18BF9EEA445F00F0B1
:1045C000B08023EA6E03524221EA0451C3EB6E032A
:1045D00038BF5B1EDCF1200E25D322FA0CFE10EB57
:1045E0000E0043FA0CFE41EB0E01CCF1200E03FA53
:1045F0000EFE10EB0E0051F10001CCF1200E29D47B
:1046000012FA0EF201EB0451BDE8104058BF70479A
:10461000401C1CBFB2F1004F704700280CBF491C62
:1046200020F00100704712EB020E43EB030218BFAB
:104630004FF0010E4EEA4202ACF1200CDCF11E0EEE
:1046400054D943FA0CFE10EB0E0051F1FF31CCF1BE
:104650001E0ED5D50EF1010E12FA0EFE404141EBB1
:10466000010101EB445C5FEA5C5C10D910EBDE7089
:1046700001EB045138BFBEF1004FBDE8104018BF38
:10468000704700280CBF491C20F00100704730D251
:104690004FEAD42C11F5001124F400641BD0B1FAB8
:1046A00081F20B3AA41AA41ED2F12003914030FAF1
:1046B00003F31943904001EBCC71002C01EB045142
:1046C000BDE81040A8BF704701F1C0414FF00000A5
:1046D00001F000417047B0FA80F310FA03F100D105
:1046E00010BDE41A173C4805C90AE4E701EB045180
:1046F00010BD491001EB0451BDE810404FEA3000F5
:1047000002E04FF0000170474A0008BF0042F8D0B5
:10471000B2F5001F28BF704701F000414FF00000C4
:1047200070479EEA445F07D011EA5E0FBDE8104073
:1047300004BF002100207047BDE8104070B5FFF7AE
:10474000E5FD00BF40DFF63E83F0004110467047B4
:104750000000E0FF43004FEAD30C4FEA3C0C43401B
:104760001FBF40070CF1605113F0FE4F70471CF063
:10477000006F03D100200CF0004170470CF00043A3
:1047800043EA507010B540EACC0000F062FA00BF76
:10479000000000924FEA0001FFF706BE4FF0004113
:1047A0004FF00000A1F500217047000090EA010FD2
:1047B00048BF81F0004100F10A83421A3CBF801AD1
:1047C00089184FEAD0524FF07F4C1CEA410FA2EB00
:1047D000D15318BF9CEA026F00F03B804FF0004CB1
:1047E0004CEA00204CEA012121FA03FC10EB0C0CEE
:1047F0001ED202F1FF325FEA1C2040EBC25038BFEC
:1048000070471CF07F0F4FEA400C18BFBCF17F4F80
:1048100038BF7047C3F12003994008BF20F0010062
:10482000BCF17F4F38BF7047A0F1C04000F057BACD
:104830004FEA3C00000A40EBC25028BF1CF0FF0FBB
:104840004FEA400CE6D018BFBCF17F4F38BF70472D
:10485000EAE79CEA026F05D010EA5C0F08BF00F09F
:104860000040704710B500F0F4F900BF64FBBE3E95
:10487000014800F01CBB00BF0000C07F401058BFC3
:10488000C0F14040491058BFC1F140418142EFF3AF
:10489000008070474FF47F0C1CEAD0121EBF1CEA48
:1048A000D11392EA0C0F93EA0C0F00F0858090EA86
:1048B000010F48BF42F4807240F4000C41F4000044
:1048C0002CF07F4120F07F4000B58142A2EB030233
:1048D0000FF2081CACEB504EC0F100009EF800E057
:1048E0004FEA4E0E00FB0EFC38BF49004FEA2C1C6D
:1048F00002F5FA020CFB0EF34FEACE1E4FEA112C22
:104900004FEAC1210EEB635E42EB22420EFB0CFC30
:104910004FEA1C5300FB03114FEA112C4FEA0131FF
:104920000EFB0CFC4FEADC4C00FB0C11C14228BF13
:1049300009184CEB03335DF804EB10EB410143EB3A
:10494000C250B2F57C0F38BF704729D512F0F00F76
:104950001CBF00F1C04000F000407047008182831E
:104960008485868788898B8C8D8E8F91929395967E
:1049700097999A9C9D9FA0A2A3A5A7A8AAACAEB008
:10498000B2B3B5B7B9BCBEC0C2C5C7C9CCCED1D40D
:10499000D7D9DCDFE2E6E9ECF0F3F7FAFE0000003D
:1049A0004FEA400C0CF1807CBCF17E4F28BF704771
:1049B000B0F1C04000F093B990EA010F0CEAD113B6
:1049C00048BF42F48072624538BF634507D213F492
:1049D0007F0F16D080EA010000F00040704710B54C
:1049E00000F037F9097EFC3E00F005B880EA0100CE
:1049F00000F00040704780EA010000F0004000F045
:104A00006EB912F47F0F04BF0248704780EA0100BC
:104A100000F065B90000C07F41000B0ED3F19E028B
:104A200008D950F400034FEA032323FA02F048BFE9
:104A30004042704710B500F00CF900BF4992248045
:104A4000002070476FF0004282EA200070470000AB
:104A5000C10DD1F19E0206DB4FEA002343F0004373
:104A600023FA02F07047004207D54FEA4001B1F146
:104A7000FE4F02D24FF00000704710B500F0E9F889
:104A800049922480002070476FEA200070470000A0
:104A900010F0004148BF4042B0FA80F310FA03F230
:104AA000C3F19D030BD051EAC35101EB1220530611
:104AB00038BF704700F1010008BF20F001007047C7
:104AC000B0FA80F310FA03F2C3F19D030AD0D905BE
:104AD00001EB1220530638BF704700F1010008BFF8
:104AE00020F001007047000050EA010C00F1138033
:104AF0001CF5000F58BFBCF5000F01D48842704769
:104B000007D710F5000F58BF11F5000F15D48842D4
:104B10007047894270471CF5000F04D5BCF5000FA3
:104B2000F7D5814270474FF0807C1CEB400F38BFB7
:104B30001CEB410F01D28142704710B500F089F89B
:104B4000922449004FF000504FF08051FFF796BE7D
:104B50004FF47F0C1CEAD0121EBF1CEAD11392EA5C
:104B60000C0F93EA0C0F00F0478090EA010F48BF4A
:104B700042F480724FF0004C4CEA00204CEA0121D4
:104B800002EB0302A0FB0113A2F50002002918BFEB
:104B900043F001035B0028BF4FEA330342EB22429C
:104BA0005FEA132C4CEBC2502EBFBCEB436FB2F547
:104BB0007C0F70474FEA036CBCF1004F08BF20F038
:104BC0000100B2F57C0F38BF70470BD582F0FF02B1
:104BD00012F5803FC8BF704700F1C040D8BF00F059
:104BE0000040704700F5000C5FEA4C0C48BF70476E
:104BF000B0F1C04000F073B890EA010F0CEAD11395
:104C000048BF42F48072624538BF634504D280EAEF
:104C1000010000F00040704710B500F01AF800BF26
:104C20008900013E00F007B800F009B85FEA410CC6
:104C30005FEA1C6C08D080EA010000F050B85FEA1F
:104C4000400C5FEA1C6CF6D14FF00040A0F58000EC
:104C500070470EF1020E2EF0030E5EF8044B244254
:104C600004D44FEA4102B2F17F4F11D84FEA40031A
:104C7000B3F17F4F0CD80ED14FEAD07CB2F17F4F09
:104C80000CEB4C0C0CF1020C08BF4CEBD17C04E09B
:104C90004FF0080C01E04FEAD17C0CEB4C0324FAF6
:104CA00003F404F00704B4F1040C06D20EEB840CF8
:104CB000BDE810404CF0010C6047DFE80CF007083D
:104CC00002024FF00040A0F5800010BD08464200EF
:104CD00018BFD2F1807288BF00F0004010BDFF21E4
:104CE00041EAD050C005704751EA000C00F1138032
:104CF0001CF5000F58BFBCF5000F01D4814270476E
:104D000007D711F5000F58BF10F5000F15D48142D9
:104D10007047894270471CF5000F04D5BCF5000FA1
:104D2000F7D5884270474FF0807C1CEB410F38BFAD
:104D30001CEB400F01D28842704780EA010081EAF3
:104D4000000180EA0100FFF7F8BE00005FEA400CB6
:104D50005FEA1C6CBCF17F0314D4D3F1170240F35B
:104D60001C804FF0010C0CFA02FCACF10103034073
:104D7000B3EB5C0220EA030008BF10EA0C0F88BF07
:104D800060447047B3F1FF3F28BF5FEA002C00F09A
:104D9000004088BF40F07E507047BCF1FF0FB8BFA5
:104DA000704710B5FFF755FF40DBB6BE80F00040FE
:104DB00090EA010F7FF501AD81F0004100F007B8E6
:104DC00090EA010F48BF81F000413FF5F6AC421A6E
:104DD00004D882F00042A0EB020011444FEAD05206
:104DE0004FF07F4C1CEA410FA2EBD15318BF9CEA55
:104DF000026F4AD04FF0004C4CEA00204CEA0121EF
:104E000021FA03FCB0EB0C0C0FD412F0FE0F36D0DD
:104E10005FEA4C001DD5001240EBC25038BF70470E
:104E20001CF03F0F18BF70470BE0A2F101025FEAD0
:104E30001C2040EBC25038BF70471CF07F0F18BFDA
:104E40007047C3F12003994014BF401E20F00100B9
:104E5000704780084FEA122308BF7047B0FA80FC01
:104E6000A2EB0C02CCF1280C60FA0CF093EA122FA2
:104E700004BF00EBC25070474FEAC3707047130A7B
:104E80005FEADC1008BF7047F6E79CEA026F04D0C7
:104E900010EA5C0F08BF0020704710B5FFF7D9FE7D
:104EA00040DFF63E81F000407047FBF732BF0CF068
:104EB0000F03092B08BF082000F051800A2B0BD0EC
:104EC000082B18BF704708BF1CF0400F0AD04FF0E6
:104ED00000004FF0000170471CF0400F18BF4FF06A
:104EE000004070471CF0100F08D020F0704300F015
:104EF0007F4242EAD3014FEA4370704700F06040BE
:104F000021F07F4242EA000201F07F4040EA7270E5
:104F100070474FF0FF0212EAD0521CBF92F0FF031D
:104F20008B42C2BFD14200EBC1507047002A0AD069
:104F3000002B0BD0002900F00040A4BF40F0FE4041
:104F400040F40000704700F00040704743024FF00B
:104F50000B0C18BF4CF0806C7FF48AAC70471CF4CB
:104F6000801F11D01CF4E02F03D06FEACC31490030
:104F700070474FF04050EFF3008222F0704242EA57
:104F8000000282F3008870474FF000007047207FD6
:104F90000C080C00000000000000000000000000F1
:104FA0000808080808080800080000001414140085
:104FB00000000000000000000A0A3F1414147E28BC
:104FC00028000000081C22201C02221C08000000EF
:104FD0002051220408102245020000001820201051
:104FE00030494A443B000000080808000000000067
:104FF0000000000004080810101010100808040039
:105000001008080404040404080810000000361CFA
:105010007F1C36000000000000000808087F080818
:105020000800000000000000000000000810000060
:1050300000000000007F00000000000000000000F1
:1050400000000000080000000001020408102040D9
:10505000000000001C222222222222221C0000002A
:1050600008380808080808083E0000001C22020250
:10507000040810203E0000001C2202020C02022242
:105080001C000000040C0C1414243E040E0000004C
:105090003E2020203C0202221C0000000C10202098
:1050A0003C2222221C0000003E22020404080810B8
:1050B000100000001C2222221C2222221C000000C0
:1050C0001C2222221E020204180000000000000818
:1050D00000000000080000000000000800000000C0
:1050E0000810000000000408102010080400000050
:1050F0000000003E003E000000000000000010081C
:1051000004020408100000001C2202020408080027
:10511000080000001E214D5555554E201C00000072
:105120001808081414223E22770000007E21212155
:105130003E2121217E0000001E21404040404021B0
:105140001E0000007C222121212121227C00000060
:105150007F2120243C2420217F0000007F21202467
:105160003C242020780000001E214040404741217F
:105170001E000000772222223E2222227700000019
:105180003E080808080808083E0000001E04040441
:1051900004044444380000007322242428382422C4
:1051A000730000007C101010101010117F00000020
:1051B000632236362A2A2222770000006722323202
:1051C0002A262622720000001C2241414141412230
:1051D0001C0000007E2121213E20202078000000BC
:1051E0001C224141414141221C1B00007E21212102
:1051F0003E242422730000003E4140403E01014114
:105200003E0000007F490808080808081C0000004C
:1052100077222222222222221C0000007722222230
:105220001414140808000000772222222A2A2A14C3
:1052300014000000772214140814142277000000D0
:1052400077222214140808081C0000007F4204047E
:10525000081010217F0000001C10101010101010FA
:1052600010101C0000402010080402010000000083
:105270001C0404040404040404041C081422000094
:10528000000000000000000000000000000000001E
:105290000000FF00100800000000000000000000F7
:1052A0000000003C023E42423D0000006020203EE3
:1052B000212121217E0000000000003E41404041AC
:1052C0003E0000000602023E424242423F00000011
:1052D0000000003E417F40413E0000000C10103CA9
:1052E000101010103C0000000000003F4242423EFF
:1052F00002023C006020202C322222227700000093
:1053000008000038080808083E0000000400003CBF
:1053100004040404040438006020202624283824CF
:105320006300000018080808080808083E0000008C
:10533000000000742A2A2A2A6B0000000000006C7A
:1053400032222222770000000000003E414141410C
:105350003E0000000000007E212121213E2070003F
:105360000000003F424242423E0207000000007639
:10537000191010107C0000000000003E413806416A
:105380003E0000000010103C101010120C00000035
:1053900000000066222222261B0000000000007789
:1053A000222214140800000000000077222A2A1488
:1053B0001400000000000077221C1C22770000006F
:1053C0000000007722221414080830000000007E3C
:1053D000440810227E00000006080808083008086B
:1053E0000808060808080808080808080808080047
:1053F0003008080808060808080830000031494647
:105400000000000000000000001C1C1C1C1C1C1CD8
:105410001C1C000400000800000000000000020046
:10542000010000100000803F0030983F0000B53FB1
:105430000040D73F00000000320A7E397F661E39E7
:105440005B991F390000803FF037983FF304B53F68
:10545000FD44D73F0000000000000000303132332F
:105460003435363738394142434445464030580098
:1054700030313233343536373839616263646566CA
:105480004030780002400000000000A00000000052
:1054900005400000000000C8000000000C400000B3
:1054A0000000409C00000000194000000020BCBE2D
:1054B0000000000034400000BFC91B8E0000000443
:1054C000B5400000504BCFD06607E2CF010000008E
:1054D0006C4100003E8251AADFEEA73401000000BB
:1054E000D9420000DCB5A0E23A301F97FFFFFFFF72
:1054F000B4450000FD25A0C8E9A3C14FFFFFFFFF91
:10550000FF3F00000000008000000000FF3F00009F
:10551000000000800000000000000000000000000B
:10552000AB360000AB360000AB36000000000000D8
:1055300000000000000000000000000043340000F4
:105540004934000000000000000000003534000075
:10555000000000000000000000000000000000004B
:105560000000000000000000000000003D230000DB
:105570005D230000572300000000000019230000F5
:105580002B230000000000000000000000000000CD
:10559000000000000000000000000000AB3600002A
:1055A000AB3600000000000000000000C92300002E
:1055B0000000000000000000AB360000AB36000029
:1055C000000000000000000039270000000000007B
:1055D00000000000000000000000000000000000CB
:1055E000000000000000000000000000AB360000DA
:1055F000000000008D2800000000000000000000F6
:105600000000000000000000812800008928000040
:105610008528000031280000000000003728000025
:105620000000000000000000AB360000AB360000B8
:10563000AB360000000000000000000095290000CB
:105640001B2A0000AB360000000000000000000034
:10565000FB2A000000000000000000000000000025
:10566000A52A0000B72A0000092B00000000000056
:1056700000000000C92A0000000000000000000037
:10568000000000000000000000000000000000001A
:1056900000000000172D0000000000008D28000011
:1056A00000000000000000000000000000000000FA
:1056B000812800008928000085280000312800008A
:1056C000000000003728000000000000000000007B
:1056D000552D000000000000BD2D0000000000005E
:1056E00000000000952900001B2A0000D52E0000B4
:1056F000000000000000000085310000473100007C
:10570000C730000000000000EF300000AB360000A2
:10571000AB360000AB3600000000000000000000C7
:10572000AB360000AB360000AB360000AB360000F5
:10573000AB360000AB3600000000000000000000A7
:105740008531000047310000C73000000000000034
:10575000EF300000BD33000039330000513300004A
:105760000000000000000000433400004934000045
:10577000AB360000AB3600003534000000000000FE
:1057800000000000000000009D350000D33500003F
:1057900000000000C5350000CB350000000000000F
:1057A00000000000000000000000000000000000F9
:1057B0000000000000000000000000001D260000A6
:1057C00000000000000000000000000000000000D9
:1057D0008730000000000000000000006732000079
:1057E00057320000373200000D3200001D32000039
:1057F0004459000000000010E4000000080100000F
:10580000285A0000E4000010447900002401000040
:105810001C00000043000000F8FFFFFF0C00000028
:105820000E0000000F0000002E000000100100001C
:1058300043000000F8FFFFFF004040404040404070
:105840004040414141414140404040404040404053
:1058500040404040404040404005020202020202F7
:105860000202020202020202022020202020202046
:10587000202020020202020202029090909090905A
:105880001010101010101010101010101010101018
:10589000101010100202020202028888888888888C
:1058A0000808080808080808080808080808080878
:1058B0000808080802020202400000000000000080
:1058C00000000000000000000000000000000000D8
:1058D00000000000000000000000000000000000C8
:1058E00000000000000000000000000000000000B8
:1058F00000000000000000000000000000000000A8
:105900000000000000000000000000000000000097
:105910000000000000000000000000000000000087
:105920000000000000000000000000000000000077
:1059300000000000000000000000000089DDFFFF03
:1059400079DDFFFF00093D000000000000000000BD
:105950000000000000000000000000000000000047
:105960000000000000000000000000000000000037
:105970000000000000000000000000000000000027
:105980000000000000000000000000000000000017
:1059900000000000000000001801001000000000DE
:1059A0000050C34771010000810101009101020014
:1059B000A1010300E3110400F31105003200060009
:1059C00022000700720025008200150092001800D6
:1059D0000120190011201A0021201B0031201C0079
:1059E00041201D0051201E0002202E001220200008
:1059F00000000000000000000000000000000000A7
:105A00000000000000000000000000000000000096
:105A10000000000000000000000000000000000086
:085A200000000000000000007E
:0400000500000221D4
:00000001FF
