:020000040000FA
:10000000F07A001075010000790100007B0100000A
:100010007D0100007F010000810100000000000060
:10002000000000000000000000000000830100004C
:1000300085010000000000003D050000690500008A
:100040008B0100000D0800001D0800002D080000B5
:100050003D0800004D080000650800008B0100000D
:100060007D0800002D0500008B0100008B010000C1
:100070008B0100008B0100008B0100008B01000050
:100080008B0100008B0100008B0100008B01000040
:100090008B0100008B010000090500008B010000AE
:1000A000950800008B0100008B0100008B0100000F
:1000B0008B0100008B0100008B0100008B01000010
:1000C0008B0100008B0100008B01000000F002F8A2
:1000D00000F040F80AA090E8000C82448344AAF1A2
:1000E0000107DA4501D100F035F8AFF2090EBAE8A0
:1000F0000F0013F0010F18BFFB1A43F0010318475C
:100100005448000074480000103A24BF78C878C1F1
:10011000FAD8520724BF30C830C144BF04680C600D
:10012000704700000023002400250026103A28BF55
:1001300078C1FBD8520728BF30C148BF0B60704759
:100140001FB59DE8030000F0F1F800F0A1F81FBD15
:1001500010B510BD00F063F91146FFF7F1FF02F092
:10016000E9FC00F081F903B4FFF7F2FF03BC00F0F3
:10017000A1F8000008480047FEE7FEE7FEE7FEE7BB
:10018000FEE7FEE7FEE7FEE7FEE7FEE70348044979
:10019000044A054B70470000CD000000F00A001033
:1001A000F07A0010F06A0010F06A001080F30888FE
:1001B000EFF30880B0E8F00F80F308887047EFF3A2
:1001C000088020E9F00F80F30888704770B5064674
:1001D00000F076F8056806F10B0020F00704B44241
:1001E0009CBF002070BD2B466A68BAB11068A0425F
:1001F00010D304F1080188423CBF5068586007D30F
:100200005168101941601168091B01605860146041
:10021000101D70BD13465268002AE7D121462846BA
:1002200000F070F80028DED170BD70B50446051FDF
:1002300000F046F80068002C14BF446870BD002C24
:1002400018BFAC423CBF20466468F8D301680A1866
:10025000AA4218BF456003D12A68054611440160CF
:1002600028684119A1421CBF6C6070BD616869605B
:1002700021680844286070BD002000F086F8FFF770
:1002800067FF012000F016F87047704770470000C4
:1002900070B5064C7C44064D7D4403E02068204444
:1002A0008047241DAC42F9D170BD0000DC4600003F
:1002B000E046000001491820ABBEFEE72600020020
:1002C00000487047980A001070477047002101608D
:1002D000C0E9011070471020704710B500F05CF8BD
:1002E000006810BD10B5044600F056F8046010BD5B
:1002F00000487047900A001070477047FFFFFFFFEB
:100300007047704738B504460A4600206946AFF387
:100310000080002808BF38BD02460099204600F042
:100320003FF8012038BD012000F072B8F8B5AFF3F6
:100330000080054600200C46102000BF0646A81984
:10034000A0420DD9324669460020AFF30080070075
:1003500008BF00F05DF80098A04218BF0546C41918
:10036000FFF7AEFF05600746F01D20F007004619B5
:100370002846FFF7ABFFB44208BFF8BDA21B3146C9
:100380003868BDE8F84000F00BB810B500F028F868
:10039000BDE8104000F01EB800487047900A0010F9
:1003A000034640688C46002818BF88423CBF03467D
:1003B0004068F8D318681844884207D00CF103004D
:1003C00020F00700001D411A521A0146081D0A605C
:1003D000FFF72BBF002801D0FFF76CBF704700006C
:1003E00010B5002102A000F045F8012010BD00006A
:1003F000534947414252543A2041626E6F726D61D7
:100400006C207465726D696E6174696F6E000000B6
:1004100010B500F049F8BDE81040FFF7DBBF7546A6
:10042000FFF766FFAE4605006946534620F0070019
:10043000854618B020B5FFF7A9FEBDE820404FF073
:1004400000064FF000074FF000084FF0000B21F0BE
:100450000701AC46ACE8C009ACE8C009ACE8C0098B
:10046000ACE8C0098D4670470446AFF300802046D3
:10047000FFF779FE70B505460C460A2000E06D1CBA
:1004800000F03AF835B128780028F8D102E0641C71
:1004900000F032F814B120780028F8D1BDE870409F
:1004A0000A2000F029B8000010B5012805D000216D
:1004B00003A0FFF7DFFF012010BD09A1F8E700004E
:1004C00053494752544D454D3A204F7574206F663D
:1004D0002068656170206D656D6F727900000000A5
:1004E0003A2048656170206D656D6F727920636F89
:1004F000727275707465640008B569468DF8000005
:100500000320ABBE08BD000010B54FF48030054994
:100510000863054800680068016903480068884767
:1005200010BD0000004003401C00001010B5024840
:10053000006800F037FB10BD3000001010B5FFF769
:100540003EFE07490860002105480068054A126818
:1005500090470349086008460068FFF727FE10BD72
:10056000480000101000001010B5FFF728FE0A49DF
:1005700008600A480068401C0849086001210648D4
:100580000068074A126890470349086008460068F7
:10059000FFF70CFE10BD0000440000101400001016
:1005A0001000001020208649086000BF84480068C1
:1005B00010F0400FFAD00320824908604FF000008D
:1005C0008149C1F8A801814908604FF001008049C4
:1005D00008608048804908604FF00100A1F10401E3
:1005E00008604FF0AA007D4908604FF05500764939
:1005F000C1F88C0000BF7A48006810F0806FFAD014
:100600000320784908604FF0AA006F49C1F88C00B8
:100610004FF05500714908604FF02300724908609F
:100620004FF00100A1F1040108604FF0AA006F49EA
:1006300008604FF05500086000BF6D48006810F476
:10064000806FFAD003206B4908604FF0AA005E4922
:10065000C1F8AC004FF0550064490860664867492E
:1006600008604FF000005849C1F8C8010846D0F8AA
:100670008800C0F30160032868D15548006810F075
:10068000030006D0012823D002283FD003285CD1E4
:1006900000E000BF52480068C0F30E0000F1010006
:1006A0004FEA4000564900FB01F04749D1F8881055
:1006B000C1F3074101F10101B0FBF1F141480068CC
:1006C000C0B200F10100B1FBF0F04E4908603CE01F
:1006D00043480068C0F30E0000F101004FEA4000FB
:1006E000494900FB01F03849D1F88810C1F30741AE
:1006F00001F10101B0FBF1F132480068C0B200F134
:100700000100B1FBF0F03F4908601EE0344800688A
:10071000C0F30E0000F101004FEA40004FF4FA412F
:1007200000FB01F02849D1F88810C1F3074101F11D
:100730000101B0FBF1F123480068C0B200F10100F3
:10074000B1FBF0F02F49086000BF2FE0204800689F
:1007500010F0030006D0012810D0022819D0032879
:1007600023D100E000BF17480068C0B200F10100CB
:100770002349B1FBF0F02349086016E011480068F6
:10078000C0B200F101002049B1FBF0F01D49086042
:100790000BE00C480068C0B200F101004FF4FA41D0
:1007A000B1FBF0F01749086000BF00BF06480068C1
:1007B00020F4704040F48040034908607047000016
:1007C000A0C10F4004C10F4000C00F40ACC10F409A
:1007D0000CC10F406300050084C00F408CC00F4067
:1007E00088C00F4080C00F40A4C00F40ACC00F4075
:1007F000A8C00F40A0C00F40DE872804C4C00F402F
:1008000000093D0000000010001BB70010B50248B1
:10081000006800F0C7F910BD2000001010B50248B4
:10082000006800F0BFF910BD2400001010B50248A8
:10083000006800F0B7F910BD2800001010B502489C
:10084000006800F0AFF910BD2C00001010B504488E
:1008500000680068816A02480068884710BD00008F
:100860003400001010B5044800680068816A02482E
:100870000068884710BD00003800001010B504481B
:1008800000680068816A02480068884710BD00005F
:100890003C00001010B50248006801F047FB10BD95
:1008A000400000102DE9F04186B00646454800683A
:1008B000401C4449086008460068B0F5A07F01DB91
:1008C000002008600021304603F000F901D200202A
:1008D00007E03D49304603F0F9F901D83A4800E015
:1008E000304606463849304602F0C6FF8046374952
:1008F00003F020F9074603F081F8C0F1F004F02C72
:1009000000D1EF2414B906B0BDE8F081204603F011
:10091000B1F880462E4903F045FA074603F06EF819
:100920000446204603F0A6F880464FF0804103F0CD
:1009300001F9074603F062F80446204603F09AF8EE
:100940008046234903F02EFA074603F057F8044681
:10095000204603F08FF880464FF0804103F0EAF81C
:10096000074603F04BF804461A481649096850F840
:100970002150012003462A4600901248016802A82F
:1009800001F090F807460020009097E80F0001F072
:1009900073F801200346224600900A48016802A825
:1009A00001F080F807464FF6FF70009097E80F00BF
:1009B00001F062F807480349096840F8214000BF88
:1009C000A1E70000F400001000409C4500007043C7
:1009D0000000F0426002001000F01F02012191406F
:1009E00042094FF0E02303EB8202C2F80011704786
:1009F0002DE9F04F8FB006460C469246012C7DDD66
:100A00005746204604EBD07149100AEBC1094FF05C
:100A1000000810E007EBC80006EB081206CA06C083
:100A200009EBC8014FEA4800401C06EBC00205CAAA
:100A300005C108F1010804EBD471B8EB610FE9DBE3
:100A4000A34604EBDB70411032463846FFF7D0FF77
:100A500004EBDB70411032464846FFF7C9FF002522
:100A60008BE0204602F049FCCDE90401284603F062
:100A700001F84749019003F05DF8834602F05CFEFF
:100A8000CDE90201DDE9042302F082FACDE9060195
:100A900001F042FFCDE9080102F098F90A902046E2
:100AA00002F02BFCCDE90401284602F0E3FF3849AF
:100AB000019003F03FF8834602F03EFECDE90201CB
:100AC000DDE9042302F064FACDE9060102F0F6F84C
:100AD00081F00041CDE9080102F078F90B9009EBB3
:100AE000C50251680B9803F025F8834659F8351074
:100AF0000A9803F01FF85946099000E044E003F01B
:100B000051F90C9059F835100B9803F013F88346FF
:100B100009EBC50251680A9803F00CF85946099090
:100B200002F036FE0D9057F835000C9902F030FEB9
:100B300046F8350007EBC5020D99506802F028FE13
:100B400006EBC501486057F835000C9903F02AF907
:100B5000A34604EBDB7105EB610146F8310007EBBE
:100B6000C5020D99506803F01DF904EBDB7105EB2C
:100B7000610106EBC10148606D1C04EBD471B5EB5B
:100B8000610FFFF66EAF00BF0FB0BDE8F08F000041
:100B9000DB0FC940024B03608180C28070470000B8
:100BA000A845000010B504466069006810F0010F08
:100BB00007D00120616908602068016920468847E4
:100BC00003E0606900686169086010BD2DE9F047C5
:100BD00088B004460E46914622464A48206002F1FB
:100BE000080000F099FFA0F1080200BF1446464833
:100BF00010602674207C052804D2DFE800F0040D84
:100C0000151D250028E04FF0402060613F4804603A
:100C10000120FFF7E1FE1FE03D4860613D480460B0
:100C20000220FFF7D9FE17E03B4860613B480460B3
:100C30000320FFF7D1FE0FE03948606139480460B6
:100C40000420FFF7C9FE07E03748606137480460B9
:100C50000920FFF7C1FE00BF00BF484602F022FF97
:100C60008046334902F066FF0746324902F062FFD0
:100C70008246012507E005EB850045002E495046D8
:100C800002F0FAFD82462D49504603F01FF8F2D3D8
:100C9000504602F0CFFEE060284602F045FB0746D2
:100CA0008846E06802F040FB0022254BCDE90001B8
:100CB00002F04EFB3A464346CDE9020102F048FB02
:100CC0000022204BCDE9040102F062F9CDE90601D2
:100CD00002F0E6FA6060681E6169C8606169E068F8
:100CE0008861032061694861207C042803D10920C0
:100CF0006169486002E0012061694860204608B0EF
:100D0000BDE8F08778480000C445000020000010CE
:100D1000008000402400001000000940280000105E
:100D2000004009402C0000100080014030000010FD
:100D300020BCBE4BBD3786350000204100FF7F47F9
:100D400080842E4184D777410146487918B90879C3
:100D500008B1012070470020FCE70146487918B12E
:100D6000087908B9012070470020FCE710B5044657
:100D700004F1080000F084FFE179884201D00120ED
:100D800010BD0020FCE701464879704710B50446C5
:100D9000607920712068416920468847607110BDE4
:100DA0002DE9F04104460F4690461D46069E0E482A
:100DB00020604246394604F1080000F091FFA0F19E
:100DC0000804002060712071A071E671314604F1C1
:100DD000080000F062FF294604F1080000F075FFEA
:100DE0002046BDE8F0810000E045000001490160B7
:100DF00070470000244600002DE9F047044689466C
:100E000017461E46DDE908A80025012020716079FB
:100E100008B100F0ADFF16B9B8F1000F1FD020687F
:100E200081682046884720684946026920469047E5
:100E3000002506E0795D2068426920469047681CDD
:100E4000C5B2B542F6DB002507E01AF805102068A8
:100E5000426920469047681CC5B24545F5DB2068CD
:100E6000C16820468847607908B100F071FF207999
:100E700010B90120BDE8F0870020FBE737B582B04C
:100E80000446012004A9CDE90010217A60680268B7
:100E90000123156803AAA847617A0843607205B068
:100EA00030BD0000034B03604160027200234372B7
:100EB00070470000CC480000024A02600122027123
:100EC00041717047344600002DE9F04307460C4657
:100ED00000216DE0DFF8EC8058F82180B7EB184F67
:100EE00065D1DFF8E08038F82180C8F30335DFF8FA
:100EF000D48038F82180C8F30712DFF8C88018F8CA
:100F0000218008F00F0C4FEA02784FEAD8634FEACD
:100F1000450808EB1216DFF8B08008EB86004FF0AA
:100F2000030909FA03F9D0F8008028EA0908C0F893
:100F300000800CFA03F9D0F8008048EA0908C0F8EC
:100F40000080DFF8848008F1400808EB86004FF04D
:100F5000030909FA03F9D0F8008028EA0908C0F863
:100F6000008004F0030909FA03F9D0F8008048EA88
:100F70000908C0F80080DFF8508008F1680808EB25
:100F800085004FF0010909FA02F9D0F8008028EA3B
:100F90000908C0F80080C4F3001909FA02F9D0F872
:100FA000008048EA0908C0F80080BDE8F083491CC9
:100FB000DFF8108058F82180B8F1000F8AD100BF07
:100FC000F3E700006800001000C0024010B50446BE
:100FD00004F1080000F071FE10BD10B5044604F1E4
:100FE000080000F045FE10BD2DE9F04104460E4614
:100FF000174600F0BDFE2046FFF7EFFF002506E094
:10100000715D606803681A689047681C85B2BD42CC
:10101000F6DB2046FFF7DAFF00F09AFEBDE8F0812C
:101020000246074810604868064BC2E90103CB68D6
:10103000D3600B7C13744B691046536170470000FA
:1010400008490000404900002DE9F04104460D46E2
:1010500016461F460E48206065603A46314604F148
:10106000080000F03DFEA0F108044FF00108217CCB
:10107000E068026853684246984700BF00BF616954
:10108000E06803689A68904700BF2046BDE8F08199
:101090000849000001490160704700005C460000FB
:1010A0000160426043688360704770B504460D4636
:1010B0004FF6FF76207950B100BF701E80B2060057
:1010C00005D0A068406800F0FC00A842F5D12EB918
:1010D000002020712068C1682046884770BD10211B
:1010E00082681160082182689161704770B504467A
:1010F000012020712068C1682046884740F2FF65C2
:1011000000BF681E80B20500FBD12020A1680860E6
:1011100020680821026A2046904770BD70B50446D9
:101120000D46A06885602820A168886115F0010F30
:1011300005D020684021026A2046904704E02068DC
:101140001821026A2046904770BD70B504460D46CE
:10115000A06885600820A168886120682821026A4B
:101160002046904770BD00002DE9F04304460E462E
:101170001746984641462046FFF79EFE04461E4805
:1011800020604FF01209012E02D0022E0BD000BFBA
:101190001A48A06049462820FFF796FE49462620B7
:1011A000FFF792FE0AE01648A06049462920FFF7A3
:1011B0008BFE49462720FFF787FE00BF00BF37B1EF
:1011C000012F07D0022F07D0032F07D000BF40F216
:1011D000E24505E07D2503E01F2501E00C2500BF69
:1011E00000BFA0684561A06805614020A168086053
:1011F0002046BDE8F08300006C46000000C00540BA
:1012000000000A400246002000BF0B4BDB6813F0D1
:10121000010FFAD0084B996000BF074BDB6813F051
:10122000100FFAD102E0044B9B68D8B2024BDB6886
:1012300013F0040FF7D1704700000340F0B50646E5
:101240000C4615463046FFF725FF06461E4830601F
:10125000002700212520FFF737FE00211520FFF78A
:1012600033FE00211820FFF72FFE1848006840F4D5
:1012700080601749C1F8C400062C04D2DFE804F0EE
:101280000406080A0C0E00BF312709E0182707E002
:101290000B2705E0052703E0022701E0002700BF38
:1012A00000BFC5F30010072141EA801005F00101DD
:1012B00040EAC11040EA07200649086002200861A0
:1012C00048603046F0BD000098460000C4C00F40A2
:1012D00000C00F400000034070B504460D46204694
:1012E000FFF784FD0446044820606560606802687A
:1012F00011688847204670BDA84600002DE9F84FC8
:101300000446894692461D460A9E009620682B4652
:1013100052464946C76B2046B84700270FE04FF0BA
:10132000000808E0A18B2068426C2046904708F135
:1013300001001FFA80F8A845F4DB781C87B2B74299
:10134000EDDBBDE8F88F8183704700003FB50446B0
:10135000079D14220A212046FFF71CFC04460B4877
:10136000206001A807C8C4E90412E06025761F20A8
:1013700060834CF21860A0834FF6FF70E08300207A
:1013800020816081204604B030BD0000BC460000D2
:101390001CB5044604F1080001F0E8FCD0B920684F
:1013A000816820468847012802D0022810D107E032
:1013B0000120019001A904F1080001F0E7FC08E018
:1013C00002200090694604F1080001F0DFFC00E013
:1013D00000BF00BF04F1080001F0C8FCD0B92068CC
:1013E000416820468847032802D0042810D107E02E
:1013F0000320019001A904F1080001F0C7FC08E0F6
:1014000004200090694604F1080001F0BFFC00E0F0
:1014100000BF00BF1CBD10B50446206988B120691B
:1014200002689169884720690268916A884708B113
:10143000032010BD20690268516A884708B1042062
:10144000F7E70020F5E700002DE9F04105460F46DB
:1014500016460021284600F043FB05460F48286049
:1014600005F108044FF01408002020716071A0718C
:1014700084F80780E079002803DDE07900F040FE81
:10148000206000BFA4F108052F6126B1306829460D
:101490004268304690472846BDE8F0810C4700007E
:1014A0002DE9F84304460D4616461F46DDE9088936
:1014B000606801680A6A49469047CDF80080606814
:1014C00001683B463246D1F830C02946E047BDE8C6
:1014D000F88310B50446606802681168884710BD3B
:1014E00070B504460D462046FFF780FC04460448CC
:1014F000206065602046FFF7ECFF204670BD0000CD
:101500002047000010B50446322000F013FC0022F2
:101510000721204600F058F94FF48072012120463F
:1015200000F052F94FF4C0620221204600F04CF95D
:1015300000220421204600F047F940F2072208214A
:10154000204600F041F900220921204600F03CF934
:1015500000220A21204600F037F900220C21204603
:1015600000F032F900220D21204600F02DF9002272
:101570000F21204600F028F900221021204600F01B
:1015800023F900221121204600F01EF90022122129
:10159000204600F019F900221321204600F014F92A
:1015A000C82000F0C7FB41F2B0221021204600F015
:1015B0000BF907221121204600F006F9322000F035
:1015C000B9FB40F285121221204600F0FDF83220CE
:1015D00000F0B0FB4FF4A0521321204600F0F4F8C5
:1015E0000E222921204600F0EFF800222A21204671
:1015F00000F0EAF8322000F09DFB4FF41C5260210D
:10160000204600F0E1F801226121204600F0DCF8DC
:1016100000226A21204600F0D7F8002280212046CF
:1016200000F0D2F800228121204600F0CDF80022FF
:101630008221204600F0C8F800228321204600F0D5
:10164000C3F800228421204600F0BEF80022852144
:10165000204600F0B9F810229021204600F0B4F89E
:1016600000229221204600F0AFF803229321204669
:1016700000F0AAF84FF488729521204600F0A4F8F3
:1016800000229721204600F09FF800229821204652
:1016900000F09AF841F238020321204600F094F855
:1016A000002084F83800204600F09BF84FF489723F
:1016B0000721204600F088F810BDF8B50446F02058
:1016C000009020684FF4A07300221146C56B20469D
:1016D000A84700250CE0002606E0618B2068426CDC
:1016E00020469047701C86B2F02EF6DB681C85B24F
:1016F000B5F5A07FEFDBF8BD2DE9F04105460C46BE
:1017000016461F46DDF8188032465021284600F064
:101710005BF806EB0800401E82B25121284600F01B
:1017200053F822465221284600F04EF8E019401E98
:1017300082B25321284600F047F83246202128463D
:1017400000F042F822462121284600F03DF82221EF
:10175000284600F00DF8002085F83800BDE8F0813B
:1017600070B504460D462946204600F017F870BDB6
:1017700038B505460C4608A00068009020128DF888
:101780000100E0B28DF802000322694605F1200055
:10179000FFF72AFC38BD00007000000038B5054690
:1017A0000C4608A00068009020128DF80100E0B2FD
:1017B0008DF802000322694605F12000FFF714FCB2
:1017C00038BD00007200000070B505460E46144694
:1017D00031462846FFF7CCFF21462846FFF7DEFFBB
:1017E00070BD10B5044694F83800B8B900225021F5
:1017F0002046FFF7E9FFEF2251212046FFF7E4FFE3
:10180000002252212046FFF7DFFF40F23F12532112
:101810002046FFF7D9FF012084F8380010BD0000F2
:101820000FB4F8B505460E4614460C9F009728469F
:1018300009A90EC9FFF78AFD05460E482860314602
:1018400005F12000FFF7ECFBA0F120052068012145
:101850000268204690472068C1682046884728468D
:10186000FFF750FE20684168204688472846F8BCAC
:101870005DF814FB644700002DE9F04104460F4673
:1018800015461E46DDF8188042463146204600F0D7
:1018900041FB0446384820600DB1882000E08220DA
:1018A0000246394604F11000FFF7FCFAA0F11004DB
:1018B0000222032104F11000FFF7E0FA0A2000F0F1
:1018C00039FA0C22042104F11000FFF7D7FA0022A4
:1018D0000A2104F11000FFF7D1FA6922202104F156
:1018E0001000FFF7CBFA022000F024FA0122212198
:1018F00004F11000FFF7C2FA0022172104F11000D2
:10190000FFF7BCFA0022412104F11000FFF7B6FAFC
:1019100001224A2104F11000FFF7B0FA01224B2105
:1019200004F11000FFF7AAFA00224B2104F1100085
:10193000FFF7A4FA0722562104F11000FFF79EFAE0
:101940000122582104F11000FFF798FA01224021EA
:1019500004F11000FFF792FAFF220B2104F11000AE
:10196000FFF78CFA0122092104F11000FFF786FA33
:101970002046BDE8F0810000B447000010B50446E1
:10198000E08A10B1E08A401EE082A069A8B1A06997
:10199000026891698847A0690268916A884740B9DE
:1019A000E08A50B9A08A40B1A0690268D16988472D
:1019B00018B1A08AE082012010BDE069A8B1E069F9
:1019C000026891698847E0690268916A884740B96E
:1019D000E08A50B9A08A40B1E0690268D1698847BD
:1019E00018B1A08AE0820220E6E70020E4E70000C8
:1019F0002DE9F04704460E4617469846DDE908599A
:101A00002A4641462046FFF71FFD04460E48206047
:101A1000A661E76185B1286801682846884758B102
:101A200028680168284688474FF47A7109FB01F15C
:101A3000B1FBF0F0A08201E00020A082A08AE08249
:101A40002046BDE8F0870000CC47000010B50848EC
:101A5000007810F0010F08D1054800F07EFB20B19E
:101A6000044800BF0248AFF30080024810BD0000E8
:101A7000F8000010FC0000107FB582B00A9DFFF74F
:101A8000E5FF0468059880B2CDE90005049883B2AB
:101A9000039882B2029881B22068466A2046B04715
:101AA00006B070BD10B5029C016042608360C460E6
:101AB00010BD03460A46196808E0914201D1002092
:101AC0007047486808B1496800E001E00029F4D196
:101AD00000BF09B14A6000E01A600120F0E7000091
:101AE00030B504460D4605482060002060601DB1F9
:101AF00021462846FFF7DDFF204630BD344900006F
:101B000070B505462C6804E02068016820468847C7
:101B10006468002CF8D170BD00210160704710B5D9
:101B200002460B4600F024F9107C08B9012100E0C0
:101B3000002102F1080050F8210030F8134000F0B5
:101B400007F9204610BD10B50446206841692046BB
:101B50008847217C09B1012200E0002204F108013C
:101B600051F82210A27E21F81200E07E401CE0769F
:101B7000E07E617E884209DAE17E6069405CA076A1
:101B8000A17E206882692046904707E00020E07629
:101B9000E17E6069405CA0760020207710BD70B5C2
:101BA00004460D46207EA84217DD607E217E8842D5
:101BB00013DA0020627EA16821F812000021627E03
:101BC000E06820F81210617E481C60766069455418
:101BD00020682946C2692046904770BD10B504466A
:101BE000607EA0B1207F90B90020E076E17E606940
:101BF000405CA076207C08B9012000E00020207421
:101C000001202077A17E206882692046904710BD80
:101C100070B504460D46164600212046FFF760FFCA
:101C200004460F48206026B130682146426830469D
:101C300090470020A076E07660762576680000F078
:101C40005FFAA060680000F05BFAE060284600F0F0
:101C500057FA6061002020742077204670BD000094
:101C6000E0470000014A0260017170470848000027
:101C700010B50446E168606803681A69904710BDB2
:101C800010B504466068026851698847E1680842F7
:101C900001D0012010BD0020FCE770B504460D46C0
:101CA0002DB1E168606803689A68904704E0E168D4
:101CB000606803681A69904770BD10B50446E16812
:101CC000606803689A68904710BD70B504460D4679
:101CD000217A6068026853682A46984770BD000000
:101CE00010B5044B036041600272047A0123A340E3
:101CF000C36010BD40490000014901607047000009
:101D00001C4800002DE9F0410446204601F00CFB80
:101D100005460022064B01F01BFB074601F0C0FA06
:101D200084B201E0601E84B2002CFBDCBDE8F081CF
:101D30000080304010B5044605E04FF47A70FFF79C
:101D4000E1FF601E84B2002CF7DC10BD704700007C
:101D500006480078002804DD04480078401E034946
:101D600008700248007800B962B670470C00001095
:101D700072B603480078401C0149087070470000A3
:101D80000C00001000B503460A46FEF70BFCFFF7F7
:101D9000DDFF0AB1FFF7ECFF184600BD01238B40C1
:101DA000026A1A4342F08072014B1A6070470000C9
:101DB0000040034030B505460C46082C05D2DFE84C
:101DC00004F0050A0F14191E232800BF0221002069
:101DD000FFF77AF822E002210120FFF775F81DE0F5
:101DE00002210846FFF770F818E002210320FFF7F0
:101DF0006BF813E002210420FFF766F80EE00221E1
:101E00000520FFF761F809E002210620FFF75CF8E2
:101E100004E002210720FFF757F800BF00BF30BDE4
:101E200001460248406880B270470000004003400D
:101E300070B504460D462A4608212046FFF7E8FE05
:101E400004460F4820600F4804600F48006840F4C3
:101E500080500E49C1F8C4000D48006840F40010DD
:101E60000B4908604FF48070C8600A482062206AFD
:101E700008604FF01600FEF7AFFD204670BD000071
:101E80003C4800001C000010C4C00F4000C00F40C0
:101E9000004003400001200010B504460121204607
:101EA000FFF7E0FE04460D48206002210820FFF7FE
:101EB0000BF80B48006820F440000A49C1F8A8015B
:101EC00007480068064908604FF019000649088174
:101ED0004FF006004860204610BD00006448000036
:101EE000A8C10F4000C00F4000C0084010B5044614
:101EF00004F10800FFF704FE10BD01464868704772
:101F000030B504460D46294604F10800FFF7D1FD1F
:101F100030BD0000044B0360418182810023838037
:101F2000C380037270470000944800002DE9F04719
:101F300007462F48D0F8008018F0080F14D008206A
:101F40002C4908602C49384600F064F82B49384683
:101F500000F074F8044614F0100F03D0386881685C
:101F600038468847BDE8F08718F4007F0CD0244934
:101F7000384600F04FF82349384600F05FF8044631
:101F80004FF400701B49086018F0040F2ED01E4853
:101F9000D0F800904FF001054FF000061DE019EA5F
:101FA000050F17D029EA05091848056000BF104839
:101FB000006810F0200FFAD0154804684FEA660058
:101FC00006F0010240EAC2113868C4F380020368D7
:101FD00038469847701CC6B26D00202E02DAB9F15F
:101FE000000FDCD104200349086000BF00BFB9E73F
:101FF00000C2005008C200500005FE000002FE00B2
:102000000005FB000002FB0030C2005038C2005047
:1020100014C200501022064B1A60064AC2F8101271
:1020200000BF054A126812F0100FFAD07047000086
:1020300008C2005000C0005000C2005002463020CC
:10204000064B18600648C0F8101200BF054800682B
:1020500010F0200FFAD004480068704708C2005002
:1020600000C0005000C2005014C2005010B512F061
:10207000010F07D043681B6801248C402343446848
:10208000236006E043681B6801248C40A343446836
:10209000236010BD4268D1617047014648684069BD
:1020A000704742689161704770B504460D462046FE
:1020B000FFF722FE044610482060052D04D2DFE819
:1020C00005F004070B0F130000BF0C4860600FE021
:1020D0000A48203060600BE008484030606007E04C
:1020E00006486030606003E004488030606000BFF4
:1020F00000BF204670BD0000AC48000000C00920B1
:1021000010B504462046FEF761F810BD490050EABC
:10211000C12018BF04204A0D18BF40F0010040F252
:10212000FF72B2EB515F08BF40F00200012808BF08
:10213000052070474100080218BF04200A0E18BF8E
:1021400040F001004FF07F4232EA010108BF40F049
:102150000200012808BF05207047016809B100206E
:1021600070470121016008467047FEF785F80000BE
:102170002DE9F74F144696B00021C4E902111799D2
:10218000089121F00045CA498D4206DC1799C4E93F
:10219000000119B00020BDE8F08FC649DFF818A390
:1021A000A9423CDD0899C54E0029C54FC54A17997B
:1021B000534619DD01F0D6F9554506D0C24AC34B46
:1021C00001F0D0F9C4E900010AE04FF0D352BF4B4F
:1021D00001F0C8F932463B4601F0C4F9C4E90001F8
:1021E00019B00120BDE8F08F00F022FE554506D061
:1021F000B54AB64B00F01CFEC4E900010AE04FF0FE
:10220000D352B24B00F014FE32463B4600F010FEB3
:10221000C4E9000119B04FF0FF30BDE8F08FAC49C0
:10222000A942179978DB21F000488346A94AAA4BB6
:10223000414601F08DF80022A84B00F0F9FD00F0B6
:10224000FFFF099001F059F806460F469D4A534694
:1022500001F07EF85A46434601F078F980468A46F6
:10226000994A9A4B3046394601F072F82A0D0125F9
:102270000B924246534601F069F9032DC4E900016F
:1022800039D00B98C1F30A51401A05EB45111139A9
:10229000814230DA9248C346784400EB0510CDF80D
:1022A0001CA00C90D0E900233046394601F050F8CC
:1022B000CDE9020102460B465846079901F052F952
:1022C00080468A4602460B465846079901F04AF96D
:1022D000DDE9022301F046F983460C980391394663
:1022E000D0E90223304601F033F85A46039B01F04F
:1022F00039F96D1CBDE708980028A2BF099819B0EC
:10230000BDE8F08F616881F000416160099819B003
:102310004042BDE8F08FFFE7C1F3130141F48011A3
:102320000E911799C1F30A51A1F2F532511102F041
:102330001F08C8F12002129200220C920D92694AE5
:102340007A4402EB810101F1140C0DA95FF006073C
:10235000DCF80020DCF8045002FA08F3129AD1F8F5
:1023600000A025FA02F21A430E9BA2FB0356A2FB21
:1023700000329A4415449A4534BF4FF0010B4FF098
:10238000000B51F8043C05EB0B0E7344954234BF2F
:10239000012200221644BBF1000F02D0AB4202D949
:1023A00003E0AB4201D2012200E000223244C1F836
:1023B00000A041E90223091FACF1040C7F1EC7D124
:1023C0000898DDE90A6500F10050800F1190089827
:1023D000099F800000F091FF80468A46384600F051
:1023E000A3FF6FF01D0201F084FD07463046059102
:1023F00000F09AFF6FF03D0201F07BFDCDE9031084
:10240000284600F091FF6FF05D0201F072FD064674
:1024100002460B460191DDE9031000F009FD3A4642
:10242000059B00F005FD4246534600F001FD0020EB
:102430000D4683464246534601F094F83A46059BC2
:1024400001F090F8DDE9033201F08CF83246019B8F
:1024500001F07CF8DFF89480234A434600F078FFCF
:1024600006460F46224A234B5846294600F070FF85
:1024700032463B4600F0DCFC0F4606464FF0A842D1
:1024800043465846294600F063FF32463B4600F07B
:10249000CFFC179A12F0004F04D0119A81F000413E
:1024A00052421192C4E90001119819B0BDE8F08FB1
:1024B000FB21E93F7CD90240FB21F93F7370032ED9
:1024C0008A19A33B000040543163621A61B4D03DC5
:1024D000FB21394183C8C96D305FE43F0000E03F14
:1024E000142200009C210000182D4454FB21F93DCA
:1024F0003326A611460B113C2DE9FF4D21F0004873
:1025000007460C46B8F1795F08DA00F099FE00281A
:1025100001BF0020324904B0BDE8F08D3A462346A1
:102520001046194600F014FF054602462D480E4697
:102530000B460621784400F05DF82A46334600F049
:1025400007FFDDE9022382468B463846214600F02C
:10255000FFFE04460F4652465B462846314600F0D1
:10256000F7FE22463B4600F0FDFF07468A464FF045
:10257000FF322846314601F0BCFC1B4A90450ADA7E
:102580003A46534600F0EEFF04B00022BDE8F04D9D
:10259000134B00F0DBBF154A4245A8BFA8F5001554
:1025A0004FF00004B8BF124D22462B4600F0DAFF70
:1025B0000646884622462B460020094900F0D2FFF5
:1025C00004460D463A4653463046414600F0CAFF9F
:1025D00004B022462B46BDE8F04D00F0B7BF000026
:1025E0000000F03F481F00003333D33F0000E93FB5
:1025F0000000D23F2DE9F0414F1E00EBC701044619
:10260000D1E9000115461E4637F006020DD02A46D4
:10261000334600F09DFE7F1E04EBC703D3E9002381
:1026200000F006FC37F00602F1D1022F25D0042F6E
:1026300013D0062F18BFBDE8F0812A46334600F0BC
:1026400087FED4E90A2300F0F3FB2A46334600F064
:102650007FFED4E9082300F0EBFB2A46334600F066
:1026600077FED4E9062300F0E3FB2A46334600F068
:102670006FFED4E9042300F0DBFB2A46334600F06A
:1026800067FED4E9022300F0D3FB2A46334600F06C
:102690005FFED4E90023BDE8F04100F0C9BB0000B3
:1026A0002DE9FF4D054621F0004084B00C46B0F105
:1026B000795F0BDA2846FFF729FD042808BF00F0F0
:1026C00065F8284608B02146BDE8F08D2A460B463D
:1026D000104600F03DFE06460F462A46234600F00F
:1026E00037FE804626488A4632463B4605217844D6
:1026F000FFF780FF83461098029160B3214A224B76
:102700004046514600F024FECDE900015A464046BD
:102710005146029B00F01CFE82468846DDE9060118
:102720004FF0FF3201F0E5FB5246434600F01AFF3E
:1027300032463B4600F00CFEDDE9062300F012FFB6
:10274000DDE9002300F00EFF08B02A462346BDE86D
:10275000F04D00F0FBBE0B465A463046394600F0BD
:10276000F7FD084A084B00F063FB4246534600F071
:10277000EFFD08B02A462346BDE8F04D00F058BBF7
:10278000861E0000495555555555C5BF024A0020C3
:10279000110701F0AEBB000001FDFFFF6FF05E010D
:1027A000080701F0D4BB0000014800BF70470000DB
:1027B000800A001030B587B000214248FFF7E2FAE6
:1027C0004FF47A7200214048FEF700FA6422042197
:1027D0003E48FEF7FBF900213D48FFF765FC01216B
:1027E0003C48FFF761FC04213B48FFF75DFC3B4898
:1027F000FFF752FB34493A48FFF71AFB1122052133
:102800003848FEF71BFD0623314A36493648FEF7A5
:102810001BFC1C2230493548FFF762FA04AD344CEA
:10282000621D21462846FEF73BFC00BF02200290B5
:10283000DDE90501CDE900012C4A2B492D48049B17
:10284000FEF7EEFF2B492C48FEF746FD01231A4602
:1028500002212A48FEF788FCF0204FF4A0730022E2
:10286000264900902648FFF707F801200023182288
:10287000184900902348FEF793FA012000231A22FA
:10288000144900902048FEF78BFA012000231422FF
:10289000104900901D48FEF783FAC8200A491B4BD7
:1028A000184ACDE9001018491948FFF7A1F800208F
:1028B00001231F22074900901648FEF771FA07B05E
:1028C00030BD0000C400001000010010180100100D
:1028D000C8000010D0000010D8000010E000001068
:1028E00030010010E8000010540100106C010010CD
:1028F000CA3F00007C010010EC000010B80100107D
:10290000C4010010E0010010F801001010020010D6
:10291000280200104802001000B5284B21F00042A8
:1029200087B09A42DCBF0022134631DD244B9A4225
:102930000DD168B94FF00100FDF7D4FC002207B0BB
:102940001346104611465DF804EB00F021BB06DB90
:1029500007B04FF001025DF804EB01F0CABA02AA19
:10296000FFF706FC10F0030104BF0DF1080CBCE8F2
:102970000F000DD0012001290ED0022914D00DF135
:10298000080C0090BCE80F00FFF78AFE07B000BDFE
:10299000FFF7B2FD07B000BD0DF1080C0090BCE8D8
:1029A0000F00FFF77DFE05E00DF1080CBCE80F00FD
:1029B000FFF7A2FD07B081F0004100BDFB21E93F18
:1029C0000000F07F2DE9F04104464FF019404E49D8
:1029D000002500EB4400884230D94FF0FF4131EA36
:1029E000040018D04FF0CE41B1EB440F84BF4FF03C
:1029F0007E50BDE8F0814549B1EB440F28BF012569
:102A00001CD20220FDF76EFC14F0004F0FD0BDE881
:102A1000F041FFF7C3BE204614F5000F04BF0020AD
:102A2000BDE8F0810121BDE8F04101F090BABDE8B8
:102A3000F04161214FF0E04001F089BA344920466D
:102A400001F078F801F074F9804600F0D7FF0646EF
:102A50003049404601F06EF807462F49404601F0E4
:102A600069F8214601F094F9394601F09BF90446D2
:102A70002A4901F05FF82A4900F08AFE214601F058
:102A800059F86FF0414100F083FE214601F052F801
:102A9000244900F07DFE214601F04CF80146224811
:102AA00006F00304784450F8240001F043F81F496D
:102AB000794451F8241000F06BFE1D49794451F817
:102AC000241000F065FEB110D5B101F040FA040009
:102AD0000BD0B4F1FF4F0FD0FFF72CFB042808BF39
:102AE000FFF75CFE2046BDE8F0810220FDF7FAFB0F
:102AF000BDE8F041FFF752BE0220FDF7F3FB96E779
:102B0000BDE8F04101F023BA0000501E0000A0858E
:102B10003BAAB840F4FD05370070313E12BB2A3D98
:102B200012BB2A3EFFFF7F3FC8190000AC1900000E
:102B300090190000ECB055496AA8FEF7D1FC6AAEC6
:102B40004FF4A0774FF0F00BFEF780FF06603B4696
:102B50000022114601A8CDF800B0FEF7A3FF4C49B2
:102B600090E80C10C06881E80C10C86000BF00201D
:102B7000009008460FC8FEF77FFF03214548FFF786
:102B80000EF84FF000084FF00009DFF80CA1514695
:102B9000424800F0CFFF83464FF07E5100F0CAFF5D
:102BA00007463F4900F068FE06463046FFF70AFF39
:102BB000044621464FF07E5001F0F4F806464FF0EF
:102BC000804100F059FE054669955DE003213148DA
:102BD000FEF7A5FF029000F065FF8346314900F043
:102BE0004BFE0746304900F0A5FF06464946204601
:102BF00000F0A0FF41460290699800F09BFF8346D9
:102C00003146284600F096FF5946019000F0C0FD7D
:102C10000746029900F0BCFD8146002000E0401C00
:102C200042F210718842FADB20480068401C1F49BC
:102C3000086008460068322801DD0020086003961D
:102C4000002004901A481949096800EBC100DDE929
:102C5000031206C0002008E005A901EBC001144AD8
:102C600002EBC0030CCB0CC1401C3228F4DB114A30
:102C7000322105A8FDF7BCFE0F49379800F0FCFD96
:102C80000746FDF70FFE00BFA0E700007C01001023
:102C9000800A00103001001000000C432506C9C056
:102CA00000007A4400FF7F4700409C455C00001014
:102CB00060070010F00800100000204100B5294B0B
:102CC00021F0004287B09A4203DC002213460092B2
:102CD00033E0254B9A420DD168B94FF00100FDF762
:102CE00001FB002207B01346104611465DF804EBC5
:102CF00000F04EB906DB07B04FF001025DF804EBBF
:102D000001F0F7B802AAFFF733FA10F003014FF011
:102D100001000DD0012914D002291AD00DF1080CA0
:102D2000BCE80F00FFF7E8FB07B081F0004100BDF1
:102D30000DF1080C0090BCE80F00FFF7B1FC07B0E4
:102D400000BD0DF1080CBCE80F00FFF7D5FB07B084
:102D500000BD0DF1080C0090BCE80F00FFF7A0FCCF
:102D6000E2E70000FB21E93F0000F07F00B50246EA
:102D7000FEF7FEFF9079D179884201DB012000E067
:102D800000200346FEF7E4FF184600BD30B50246BA
:102D90000B460024FEF7ECFF9079D179884211DAD6
:102DA00018781579116848551179D079401E8142FB
:102DB00002DA1079401C00E0002010719079401C6C
:102DC00090710124FEF7C4FF204630BD21F000427F
:102DD000A2F16052B2F5801F01F0004328BFD2F18A
:102DE0007F6C0BD95FEA001C43EAC20242EB5070D1
:102DF00018BF704728BF20F001007047B2F5801F50
:102E0000BCBF184670474FEA410C1CF5001F02D2A8
:102E1000084600F056BF70B500F044FB0000008982
:102E2000FFF7F6BF4FF00040A0F5800070470000AC
:102E300010B591EA030F48BF83F0004300F19A8375
:102E4000841A71EB030C05D2121943EB0C03001B1F
:102E500061EB0C01DFF824E14FEA1154A4EB135CA1
:102E60001EEA430F18BF9EEA445F73D023EA0E03A5
:102E7000DCF1200E21EA045143F4801332D322FA0C
:102E80000CFE10EB0E0023FA0CFE41EB0E01CCF110
:102E9000200E03FA0EFE10EB0E0051F10001B1F509
:102EA000801FCCF1200E32D201EB045112FA0EF247
:102EB000BDE8104058BF7047401C38BF5FEA42026F
:102EC00018BF7047002814BF20F0010041F1000135
:102ED0004FEA410313F5001F38BF7047A1F1C0410D
:102EE00000F02EBB012A43EB0302ACF1200CDCF115
:102EF0001F0E32BF4FF0000E23FA0CF310EB03004D
:102F000041EB0451B4EB115FD0D0A1EB045101F5BA
:102F1000801149085FEA300001EB04510ED350F1F3
:102F2000000038BF12FA0EFE08D1BDE81040C9E714
:102F3000401C38BF5FEA4202CAD1C3E7BDE8104077
:102F40004FEA410313F5001F38BF7047A1F1C0419C
:102F500000F0F6BA9EEA445F08D011EA5E0FBDE8C1
:102F6000104004BF01F0004100207047BDE8104050
:102F700070B500F097FA00BF64FBBE3E0000E0FFB2
:102F800002494FF0000000F082BF00BF0000F87F50
:102F90002DE9C04130B4DFF8A0C23CEA111418BFDB
:102FA0003CEA131400F0EC8081EA03051CEA1114DA
:102FB00044EAD57418BF1CEA131500F0C780A4EBCF
:102FC00005044FF0004545EAC12145EAC32341EA23
:102FD000505143EA525304F17F74994204F500348E
:102FE0004FEAC0204FEAC22208BF904200F09C8006
:102FF0004FEA13650FF24016765D4FEA134506FB64
:1030000005F7C7F1807706FB07F74FEAD737A7FB2D
:1030100003687642C8F58038A7FB06CE38BFA8F112
:10302000010807FB08E64FF0000EA6FB028CE6FB4A
:1030300003CEDCF1000CCEF1004E38BFAEF1010E34
:10304000A6FB0C584FF000074FF00005E6FB0E877B
:10305000A1FB08C6A0FB07CE16EB0E0645F1000546
:10306000E1FB076515F1E04E7EBFA4F580345FEA11
:1030700046066D4116F1800745F100054FEA172716
:103080004FEA066647EA0567A6F1DE46B6F1805FBD
:103090004FEA15251FD9384624F0010C05EBC47101
:1030A000BCF1FE6F01EB0C1102D8F0BCBDE8008151
:1030B00024425CBF01F5801E9EEAC47F02D4F0BCAE
:1030C000BDE80081244238D4F0BCA1F1C041BDE884
:1030D000004100F035BA4FEAD22242EA43524FEAA9
:1030E000D323A7FB02864FEAD02040EA415007FBDA
:1030F00003661EEA0E0F4FEAD12105FB026658BF98
:10310000A6EB0056B6EB00564FEA520E4EEAC37ECF
:1031100018EB0E0E56EB530EBDD518EB02085E41B0
:103120007F1C55F10005B6E74FF480154FF00007FE
:103130004FF000064FF00008ADE7F0BC4FF0000084
:1031400001F1C04101F00041BDE8008111EA0C1F0E
:103150000CEA131500D00CE013EA0C1F00F02580D8
:103160004FF00000F0BC81EA030101F00041BDE82E
:103170000081F0BCBDE8004181EA030100F0E0B944
:10318000F0BCBDE8004170B500F08CF9097EFC3E52
:1031900000F007B881EA03014FF0000001F00041A0
:1031A000704781EA030100F0CBB9F0BCBDE80041F3
:1031B0004FF0000021497047FFFDFBF9F7F5F4F2ED
:1031C000F0EEEDEBE9E8E6E4E3E1E0DEDDDBDAD8C2
:1031D000D7D5D4D3D1D0CFCDCCCBCAC8C7C6C5C420
:1031E000C2C1C0BFBEBDBCBBBAB9B8B7B6B5B4B337
:1031F000B2B1B0AFAEADACABAAA9A8A8A7A6A5A422
:10320000A3A3A2A1A09F9F9E9D9C9C9B9A999998E5
:103210009797969595949393929191908F8F8E8E88
:103220008D8C8C8B8B8A8989888887878685858415
:1032300084838382828181800000FF070000F87F01
:103240004FEA41034FEA5353A3F58063D3F11E03C2
:10325000C8BFD3F1210C0CDD4FF0004242EAC1227D
:1032600042EA505232FA03FC8CEAE17CACEBE170AA
:103270007047102BC4BF0020704703F5787CBCF169
:10328000FF3F04D06FF0004282EA2100704770B522
:1032900000F008F94992248000207047F2E700000E
:1032A0004FEA1153A3F58063D3F11E03A8BFD3F1F6
:1032B000200C08DB4FF0004242EAC12252EA505291
:1032C00032FA03F0704709420BD4102BC4BF002020
:1032D000704703F5787CBCF1FF3F05D04FF0FF301D
:1032E00070474FF00000704770B500F0DBF800BF8A
:1032F0004992248000207047F0E710F0004248BF58
:103300004042B0FA80F310FA03F10AD0C3F11D0372
:1033100003F580634FEA415002EB035202EBD121E7
:1033200070474FF000007047B0FA80F310FA03F1D5
:103330000AD0C3F11D0303F580634FEA41504FEA01
:10334000035202EBD12170474FF00000704700009C
:10335000DFF848C170B51CEA111E1EBF1CEA131528
:103360009EEA0C0F95EA0C0F00F06F8081EA0304CF
:1033700023EA4C134EEAD47E21EA4C1141F4801129
:1033800043F48013AE44A1FB024CA0FB0365AEF1F5
:103390007F7E361955EB0C05A1FB034C4CF1000365
:1033A000A0FB021C16EB0C06654153F10003094219
:1033B00018BF46F0010613F4007F0BD14FEA03312A
:1033C0004FEA0530340341EA155140EA16506FF0D8
:1033D00003020AE04FEAC3214FEAC520F40241EAA2
:1033E000555140EA56506FF0020202EB2E4201EBBB
:1033F000025585EACE710AD05FEA440C18BF24F06A
:10340000004450F1000041F1000120EAD47040F284
:10341000FE7C624500D270BDA84214BF4FF08044CC
:103420004FF04044002E08BF0024BEF1806FA8BFBB
:10343000A1F1C041BDE8704080F282804FF00000F1
:1034400001F1C04101F0004170479EEA0C0F0CEA07
:10345000131518BF95EA0C0F06D04FF0000081EA53
:10346000030E0EF0004170BD00F01CF88900013E13
:1034700000F007B800F009B84FEA430C5FEA5C5C63
:1034800008D081EA030100F05BB84FEA410C5FEA23
:103490005C5CF6D14FF00000014970470000FF0767
:1034A0000000F87F0EF1020E2EF0030E5EF8046BA2
:1034B000364205D4012A43EB030515F5001F12D847
:1034C000012841EB010C1CF5001F0CD80ED14FEA6E
:1034D000D17C15F5001F0CEB4C0C0CF1020C08BF55
:1034E0004CEBD37C04E04FF0080C01E04FEAD37CB6
:1034F0000CEB4C0526FA05F606F00706B6F1040CAF
:1035000006D20EEB860CBDE870404CF0010C604713
:10351000DFE80CF0090B02024FF000414FF0000011
:10352000A1F5002170BD19461046012851EB010498
:1035300018BFD4F5001484BF002001F0004170BD15
:103540000808A0F500114FEA3101704791EA030F16
:1035500010B581F000413FF573AC83F0004300F0FB
:1035600009B8000010B591EA030F48BF83F000438B
:103570003FF566AC841A71EB030C07D212198CF07C
:10358000004C43EB0C03001B61EB0C01DFF8A4E1E2
:103590004FEA1154A4EB135C1EEA430F18BF9EEAD6
:1035A000445F00F0B08023EA6E03524221EA0451E6
:1035B000C3EB6E0338BF5B1EDCF1200E25D322FA6D
:1035C0000CFE10EB0E0043FA0CFE41EB0E01CCF1A9
:1035D000200E03FA0EFE10EB0E0051F10001CCF1AB
:1035E000200E29D412FA0EF201EB0451BDE810406E
:1035F00058BF7047401C1CBFB2F1004F70470028F5
:103600000CBF491C20F00100704712EB020E43EB87
:10361000030218BF4FF0010E4EEA4202ACF1200C3B
:10362000DCF11E0E54D943FA0CFE10EB0E0051F1E2
:10363000FF31CCF11E0ED5D50EF1010E12FA0EFEA1
:10364000404141EB010101EB445C5FEA5C5C10D955
:1036500010EBDE7001EB045138BFBEF1004FBDE846
:10366000104018BF704700280CBF491C20F0010013
:10367000704730D24FEAD42C11F5001124F40064C5
:103680001BD0B1FA81F20B3AA41AA41ED2F1200386
:10369000914030FA03F31943904001EBCC71002CB8
:1036A00001EB0451BDE81040A8BF704701F1C041D3
:1036B0004FF0000001F000417047B0FA80F310FABB
:1036C00003F100D110BDE41A173C4805C90AE4E72C
:1036D00001EB045110BD491001EB0451BDE810404D
:1036E0004FEA300002E04FF0000170474A0008BF87
:1036F0000042F8D0B2F5001F28BF704701F000412A
:103700004FF0000070479EEA445F07D011EA5E0F59
:10371000BDE8104004BF002100207047BDE8104004
:1037200070B5FFF7BFFE00BF40DFF63E83F00041FB
:10373000104670470000E0FF43004FEAD30C4FEA09
:103740003C0C43401FBF40070CF1605113F0FE4F8B
:1037500070471CF0006F03D100200CF0004170474F
:103760000CF0004343EA507010B540EACC0000F082
:1037700062FA00BF000000924FEA0001FFF7E0BECE
:103780004FF000414FF00000A1F50021704700000C
:1037900090EA010F48BF81F0004100F10A83421A0C
:1037A0003CBF801A89184FEAD0524FF07F4C1CEA78
:1037B000410FA2EBD15318BF9CEA026F00F03B808F
:1037C0004FF0004C4CEA00204CEA012121FA03FCA6
:1037D00010EB0C0C1ED202F1FF325FEA1C2040EB12
:1037E000C25038BF70471CF07F0F4FEA400C18BF23
:1037F000BCF17F4F38BF7047C3F12003994008BF29
:1038000020F00100BCF17F4F38BF7047A0F1C040ED
:1038100000F057BA4FEA3C00000A40EBC25028BF04
:103820001CF0FF0F4FEA400CE6D018BFBCF17F4FF1
:1038300038BF7047EAE79CEA026F05D010EA5C0FD8
:1038400008BF00F00040704710B500F0F4F900BF69
:1038500064FBBE3E014800F01ABB00BF0000C07F01
:10386000401058BFC0F14040491058BFC1F140411D
:103870008142EFF3008070474FF47F0C1CEAD012B6
:103880001EBF1CEAD11392EA0C0F93EA0C0F00F052
:10389000858090EA010F48BF42F4807240F4000C2A
:1038A00041F400002CF07F4120F07F4000B58142C0
:1038B000A2EB03020FF2081CACEB504EC0F100006B
:1038C0009EF800E04FEA4E0E00FB0EFC38BF4900A8
:1038D0004FEA2C1C02F5FA020CFB0EF34FEACE1E47
:1038E0004FEA112C4FEAC1210EEB635E42EB2242FC
:1038F0000EFB0CFC4FEA1C5300FB03114FEA112C8A
:103900004FEA01310EFB0CFC4FEADC4C00FB0C11C2
:10391000C14228BF09184CEB03335DF804EB10EBF0
:10392000410143EBC250B2F57C0F38BF704729D537
:1039300012F0F00F1CBF00F1C04000F000407047D3
:10394000008182838485868788898B8C8D8E8F9178
:103950009293959697999A9C9D9FA0A2A3A5A7A89C
:10396000AAACAEB0B2B3B5B7B9BCBEC0C2C5C7C9C8
:10397000CCCED1D4D7D9DCDFE2E6E9ECF0F3F7FA2C
:10398000FE0000004FEA400C0CF1807CBCF17E4F41
:1039900028BF7047B0F1C04000F093B990EA010F22
:1039A0000CEAD11348BF42F48072624538BF6345C8
:1039B00007D213F47F0F16D080EA010000F0004018
:1039C000704710B500F037F9097EFC3E00F005B8ED
:1039D00080EA010000F00040704780EA010000F03A
:1039E000004000F06EB912F47F0F04BF0248704728
:1039F00080EA010000F065B90000C07F41000B0EB5
:103A0000D3F19E0208D950F400034FEA032323FAAE
:103A100002F048BF4042704710B500F00CF900BFFB
:103A200049922480002070476FF0004282EA200013
:103A300070470000C10DD1F19E0206DB4FEA002362
:103A400043F0004323FA02F07047004207D54FEAE3
:103A50004001B1F1FE4F02D24FF00000704710B5A7
:103A600000F0E9F849922480002070476FEA2000B6
:103A70007047000010F0004148BF4042B0FA80F3A8
:103A800010FA03F2C3F19D030BD051EAC35101EBCD
:103A90001220530638BF704700F1010008BF20F024
:103AA00001007047B0FA80F310FA03F2C3F19D03EE
:103AB0000AD0D90501EB1220530638BF704700F138
:103AC000010008BF20F001007047000050EA010C1F
:103AD00000F113801CF5000F58BFBCF5000F01D496
:103AE0008842704707D710F5000F58BF11F5000F37
:103AF00015D488427047894270471CF5000F04D5E1
:103B0000BCF5000FF7D5814270474FF0807C1CEB6D
:103B1000400F38BF1CEB410F01D28142704710B5F6
:103B200000F089F8922449004FF000504FF0805186
:103B3000FFF796BE4FF47F0C1CEAD0121EBF1CEAA2
:103B4000D11392EA0C0F93EA0C0F00F0478090EA31
:103B5000010F48BF42F480724FF0004C4CEA002045
:103B60004CEA012102EB0302A0FB0113A2F50002C3
:103B7000002918BF43F001035B0028BF4FEA33035D
:103B800042EB22425FEA132C4CEBC2502EBFBCEB3F
:103B9000436FB2F57C0F70474FEA036CBCF1004FE6
:103BA00008BF20F00100B2F57C0F38BF70470BD57D
:103BB00082F0FF0212F5803FC8BF704700F1C0409D
:103BC000D8BF00F00040704700F5000C5FEA4C0CD5
:103BD00048BF7047B0F1C04000F073B890EA010FE1
:103BE0000CEAD11348BF42F48072624538BF634586
:103BF00004D280EA010000F00040704710B500F0E8
:103C00001AF800BF8900013E00F007B800F009B8BB
:103C10005FEA410C5FEA1C6C08D080EA010000F00A
:103C200050B85FEA400C5FEA1C6CF6D14FF00040E0
:103C3000A0F5800070470EF1020E2EF0030E5EF824
:103C4000044B244204D44FEA4102B2F17F4F11D811
:103C50004FEA4003B3F17F4F0CD80ED14FEAD07C2E
:103C6000B2F17F4F0CEB4C0C0CF1020C08BF4CEB8B
:103C7000D17C04E04FF0080C01E04FEAD17C0CEB62
:103C80004C0324FA03F404F00704B4F1040C06D244
:103C90000EEB840CBDE810404CF0010C6047DFE8EF
:103CA0000CF0070802024FF00040A0F5800010BDA4
:103CB0000846420018BFD2F1807288BF00F0004071
:103CC00010BDFF2141EAD050C005704751EA000CF9
:103CD00000F113801CF5000F58BFBCF5000F01D494
:103CE0008142704707D711F5000F58BF10F5000F3C
:103CF00015D481427047894270471CF5000F04D5E6
:103D0000BCF5000FF7D5884270474FF0807C1CEB64
:103D1000410F38BF1CEB400F01D28842704780EA48
:103D2000010081EA000180EA0100FFF7F8BE00000F
:103D30005FEA400C5FEA1C6CBCF17F0314D4D3F142
:103D4000170240F31C804FF0010C0CFA02FCACF19E
:103D500001030340B3EB5C0220EA030008BF10EA52
:103D60000C0F88BF60447047B3F1FF3F28BF5FEA84
:103D7000002C00F0004088BF40F07E507047BCF13E
:103D8000FF0FB8BF704710B5FFF755FF40DBB6BE59
:103D900080F0004090EA010F7FF501AD81F0004115
:103DA00000F007B890EA010F48BF81F000413FF5ED
:103DB000F6AC421A04D882F00042A0EB0200114493
:103DC0004FEAD0524FF07F4C1CEA410FA2EBD15387
:103DD00018BF9CEA026F4AD04FF0004C4CEA00201A
:103DE0004CEA012121FA03FCB0EB0C0C0FD412F0C9
:103DF000FE0F36D05FEA4C001DD5001240EBC250DA
:103E000038BF70471CF03F0F18BF70470BE0A2F19E
:103E100001025FEA1C2040EBC25038BF70471CF023
:103E20007F0F18BF7047C3F12003994014BF401E95
:103E300020F00100704780084FEA122308BF704746
:103E4000B0FA80FCA2EB0C02CCF1280C60FA0CF06A
:103E500093EA122F04BF00EBC25070474FEAC370C1
:103E60007047130A5FEADC1008BF7047F6E79CEA68
:103E7000026F04D010EA5C0F08BF0020704710B535
:103E8000FFF7D9FE40DFF63E81F0004070470CF0AE
:103E90000F03092B08BF082000F07F800A2B0BD0EE
:103EA000082B18BF704708BF1CF0400F0AD04FF016
:103EB00000004FF0000170471CF0400F18BF4FF09A
:103EC000004070471CF0100F08D020F0704300F045
:103ED0007F4242EAD3014FEA4370704700F06040EE
:103EE00021F07F4242EA000201F07F4040EA727016
:103EF00070474FF0FF0C4CF4E06C1CEA11531CBFF0
:103F00009CEA030C9445C2BFDA4201EB02517047B0
:103F1000002B0DD0BCF1000F0FD0002A01F00041A2
:103F2000A4BF41F0E04141F07F614FF000007047D5
:103F300001F000414FF00000704750EA01334FF0AC
:103F40009B0C18BF4CF0806C7FF41AA870474FF0A0
:103F5000FF0212EAD0521CBF92F0FF038B42C2BF95
:103F6000D14200EBC1507047002A0AD0002B0BD081
:103F7000002900F00040A4BF40F0FE4040F40000E3
:103F8000704700F00040704743024FF00B0C18BF21
:103F90004CF0806C7FF45EAC70471CF4801F11D035
:103FA0001CF4E02F03D06FEACC31490070474FF08A
:103FB0004050EFF3008222F0704242EA000282F3A6
:103FC000008870474FF000007047207F0C080C00FD
:103FD00000000000000000000000000008080808C1
:103FE0000808080008000000141414000000000075
:103FF000000000000A0A3F1414147E282800000064
:10400000081C22201C02221C08000000205122044F
:1040100008102245020000001820201030494A44B0
:104020003B0000000808080000000000000000003D
:1040300004080810101010100808040010080804E4
:1040400004040404080810000000361C7F1C36001D
:104050000000000000000808087F080808000000B1
:104060000000000000000000081000000000000038
:10407000007F0000000000000000000000000000C1
:1040800008000000000102040810204000000000A9
:104090001C222222222222221C00000008380808AA
:1040A000080808083E0000001C2202020408102034
:1040B0003E0000001C2202020C0202221C00000032
:1040C000040C0C1414243E040E0000003E2020209A
:1040D0003C0202221C0000000C1020203C22222264
:1040E0001C0000003E22020404080810100000001A
:1040F0001C2222221C2222221C0000001C2222221E
:104100001E02020418000000000000080000000069
:104110000800000000000008000000000810000077
:104120000000040810201008040000000000003EF9
:10413000003E000000000000000010080402040817
:10414000100000001C220202040808000800000001
:104150001E214D5555554E201C000000180808140E
:1041600014223E22770000007E2121213E212121C0
:104170007E0000001E214040404040211E00000003
:104180007C222121212121227C0000007F2120246A
:104190003C2420217F0000007F2120243C2420207B
:1041A000780000001E214040404741211E000000D1
:1041B000772222223E222222770000003E080808B1
:1041C000080808083E0000001E04040404044444D7
:1041D00038000000732224242838242273000000B1
:1041E0007C101010101010117F0000006322363672
:1041F0002A2A222277000000672232322A2626222B
:10420000720000001C224141414141221C0000007B
:104210007E2121213E202020780000001C224141E7
:10422000414141221C1B00007E2121213E242422E9
:10423000730000003E4140403E0101413E0000004D
:104240007F490808080808081C000000772222227D
:10425000222222221C000000772222221414140899
:1042600008000000772222222A2A2A1414000000C3
:1042700077221414081414227700000077222214E5
:10428000140808081C0000007F42040408101021D4
:104290007F0000001C1010101010101010101C00D7
:1042A0000040201008040201000000001C04040467
:1042B0000404040404041C0814220000000000008C
:1042C0000000000000000000000000000000FF00EF
:1042D0001008000000000000000000000000003C8A
:1042E000023E42423D0000006020203E212121216B
:1042F0007E0000000000003E414040413E000000C2
:104300000602023E424242423F0000000000003EE0
:10431000417F40413E0000000C10103C1010101076
:104320003C0000000000003F4242423E02023C00CE
:104330006020202C32222222770000000800003862
:10434000080808083E0000000400003C04040404BF
:10435000040438006020202624283824630000004C
:1043600018080808080808083E000000000000744B
:104370002A2A2A2A6B0000000000006C3222222226
:10438000770000000000003E414141413E00000036
:104390000000007E212121213E2070000000003F0E
:1043A000424242423E0207000000007619101010FF
:1043B0007C0000000000003E413806413E00000045
:1043C0000010103C101010120C00000000000066DD
:1043D000222222261B000000000000772222141453
:1043E0000800000000000077222A2A1414000000B0
:1043F00000000077221C1C227700000000000077DC
:1044000022221414080830000000007E4408102204
:104410007E0000000608080808300808080806089A
:1044200008080808080808080808080030080808EC
:10443000080608080808300000314946000000005E
:1044400000000000001C1C1C1C1C1C1C1C1C000070
:104450000000803F0030983F0000B53F0040D73F4C
:1044600000000000320A7E397F661E395B991F39D1
:104470000000803FF037983FF304B53FFD44D73F3D
:104480004C5555555555A53F7751C1166CC156BF72
:104490009015CB19A001FA3EAD529C804F7E92BE82
:1044A000C4B1B4BD9EEE213ED43888BEE9FAA8BDA1
:1044B00000004054FB21F93F3163621A61B4D03DE2
:1044C0000000601A61B4D03D7370032E8A19A33BBB
:1044D0000000002E8A19A33BC14920259A837B390D
:1044E00000000000000000006E83F9A22915444E70
:1044F000D15727FCC0DD34F5999562DB4190433CF0
:10450000AB6351FE61C5BBDE3A6E24B7E0D24D42CB
:10451000EA2E49061C92D1091CEB1DFE3EA729B1CB
:10452000F53582E88444BB2E26709CE9417E5FB459
:1045300039D69139F43953838B5F849C3B28F9BD7C
:10454000FF97F81F0F9805DE8B112FEF1F6D0A5A8A
:10455000CF7E366DB709CB27663F464F2DEA5F9E6B
:10456000C7BA27757BF1E5EBF739073DEA92528A26
:10457000B15FFB6B085D8D1FA6F810111111813F13
:10458000D561C119A0012ABF7DFEB157E31DC73E09
:10459000EB9C2B8AE6E55ABE7CD5CF5A3AD9E53D4D
:1045A00000000000000000006B2100006B210000F3
:1045B0006B2100000000000000000000000000006F
:1045C00000000000FB1E0000011F000000000000B2
:1045D00000000000ED1E00000000000000000000D0
:1045E00000000000000000000000000000000000CB
:1045F000000000006D0D00008D0D0000870D000013
:1046000000000000490D00005B0D000000000000EC
:10461000000000000000000000000000000000009A
:10462000000000006B2100006B2100000000000072
:1046300000000000F90D0000000000006B210000E8
:104640006B2100006B2100006B2100006B2100003A
:104650006B21000000000000000000006B21000042
:104660006B2100000000000000000000F90D0000B8
:1046700000000000ED100000DF1000001D11000020
:104680004B1100000000000000000000AB10000013
:104690000000000000000000051200000000000003
:1046A000000000000000000000000000000000000A
:1046B0000000000000000000000000006B2100006E
:1046C00000000000000000000000000000000000EA
:1046D0000000000000000000000000004713000080
:1046E000000000000000000000000000FD120000BB
:1046F00000000000000000006B2100006B210000A2
:104700006B21000000000000000000009113000079
:10471000171400006B2100000000000000000000E2
:10472000D3140000000000000000000000000000A2
:104730000000000000000000000000000000000079
:1047400000000000A11400000000000000000000B4
:104750000000000000000000000000000000000059
:1047600000000000BB160000000000000000000078
:104770000000000000000000000000000000000039
:1047800000000000471300000000000000000000CF
:1047900000000000FD12000000000000000000000A
:1047A000F916000000000000611700000000000082
:1047B00000000000000000000000000000000000F9
:1047C0000000000000000000000000009113000045
:1047D000171400007D190000000000000000000018
:1047E000DD1B00009F1B00001F1B000000000000DD
:1047F000471B00006B2100006B2100006B210000B3
:1048000000000000000000006B2100006B21000090
:104810000000000000000000000000006B2100000C
:104820006B2100006B2100006B2100006B21000058
:104830006B2100000000000000000000DD1B0000F4
:104840009F1B00001F1B000000000000471B000012
:10485000211E00009D1D0000B51D0000000000008D
:104860000000000000000000000000000000000048
:104870000000000000000000FB1E0000011F0000FF
:104880006B2100006B210000ED1E00000000000005
:10489000000000006B21000000000000000000008C
:1048A0000000000000000000000000000000000008
:1048B0006D200000A32000000000000095200000F3
:1048C0009B2000000000000000000000000000002D
:1048D00000000000000000000000000000000000D8
:1048E00000000000000000007D0E0000000000003D
:1048F00000000000000000000000000000000000B8
:1049000000000000000000000000000000000000A7
:104910000000000000000000000000000000000097
:10492000E90F00000000000000000000000000008F
:1049300000000000FB02000000000000000000007A
:10494000CB1C0000BB1C00009B1C0000711C000065
:10495000811C00007C4900000000001000010000E4
:10496000080100007C4A000000010010F0790000FE
:104970002401000041DEFFFF31DEFFFF00093D00A2
:104980000000000000000000000000000000000027
:104990000000000000000000000000000000000017
:1049A0000000000000000000000000000000000007
:1049B00000000000000000000000000000000000F7
:1049C00000000000000000000000000000000000E7
:1049D000E0000010300100100000000000000000A6
:1049E0000050C347710100008101010091010200E4
:1049F000A1010300E3110400F311050032000600D9
:104A000022000700A20108007200250082001500A4
:104A1000920018000120190011201A0021201B000B
:104A200031201C0041201D0051201E0002202E00BC
:104A300012202000A2002900B20027000000000080
:104A40000000000000000000000000000000000066
:104A50000000000000000000000000000000000056
:104A60000000000000000000000000000000000046
:0C4A70000000000000000000000000003A
:040000050000017581
:00000001FF
